:020000040000FA
:0600000050EF0DF01200AC
:020006001200E6
:08000800F2A402D0C9EF08F0D8
:100010009EA002D040EF09F09EAA02D007EF05F0A3
:10002000A4AA02D076EF05F01200D08EF28E120054
:1000300006006F1C000086000000020000006E1C1D
:1000400000008B00000001000000521C0000600056
:1000500000001C0000003D1C000000010000150015
:100060000000ED1B00000002000050000000F11A2B
:0A007000000000060000FC00000084
:06007A00D9CFE6FFE1CF43
:10008000D9FF020EE126DE6ADD6ADECF10F0DDCF99
:1000900011F0D890115004E6020E105C000E1158B9
:1000A00062E2DECFE9FFDDCFEAFF280EEA02F3CFFE
:1000B000EAFFE902F3CFE9FFF450EA26000EE92651
:1000C000020EEA22EE52FE0EDBCFEFFFDECFE9FF9B
:1000D000DDCFEAFF280EEA02F3CFEAFFE902F3CF11
:1000E000E9FFF450EA26000EE926020EEA22020E8B
:1000F000E926000EEA22FD0EDBCFEFFFDECFE9FF9F
:10010000DDCFEAFF280EEA02F3CFEAFFE902F3CFE0
:10011000E9FFF450EA26000EE926020EEA22030E59
:10012000E926000EEA22FC0EDBCFEFFFDECFE9FF6F
:10013000DDCFEAFF280EEA02F3CFEAFFE902F3CFB0
:10014000E9FFF450EA26000EE926020EEA22040E28
:10015000E926000EEA22FB0EDBCFEFFFDF2A010EBD
:1001600001E3DB2A92D727D8020EE15C02E2E16AC2
:10017000E552E16EE552E7CFD9FF1200D9CFE6FF95
:10018000E1CFD9FFFE0EDB50280DF3CFE9FFF4CF0E
:10019000EAFF000EE926020EEA221D0EE926000EF5
:1001A000EA22FC0EDBCFEEFFFD0EDBCFEDFFE552CA
:1001B000E7CFD9FF1200D9CFE6FFE1CFD9FFE65252
:1001C000E66A4B0EE66EE66AE66A55EC06F0E55224
:1001D000E552E552E552E66A4B0EE66EE66AE66ADD
:1001E000B9EC06F0E552E552E552E552DF6A020E3F
:1001F000DF5C01E393D0DF50280DF3CFE9FFF4CFAC
:10020000EAFF000EE926020EEA22190EE926000E88
:10021000EA22EF6ADF50280DF3CFE9FFF4CFEAFFBF
:10022000000EE926020EEA221A0EE926000EEA2244
:10023000EF6ADF50280DF3CFE9FFF4CFEAFF000E9D
:10024000E926020EEA22010EEF6EDF50280DF3CFF1
:10025000E9FFF4CFEAFF000EE926020EEA221B0EA8
:10026000E926000EEA22EF6ADF50280DF3CFE9FFFE
:10027000F4CFEAFF000EE926020EEA221C0EE92660
:10028000000EEA22EF68DF50280DF3CFE9FFF4CF2C
:10029000EAFF000EE926020EEA22230EE926000EEE
:1002A000EA22EECF10F0EECF11F0EECF12F0EFCF4A
:1002B00013F0DF50280DF3CFE9FFF4CFEAFF000E73
:1002C000E926020EEA221F0EE926000EEA2210C0DD
:1002D000EEFF11C0EEFF12C0EEFF13C0EEFFDF50C5
:1002E000280DF3CFE9FFF4CFEAFF000EE926020E56
:1002F000EA22EF50E66EDF50280DF3CFE9FFF4CF8E
:10030000EAFF000EE926020EEA22270EE926000E79
:10031000EA22E552E750EF6EDF2A69D7E552E5524F
:10032000E7CFD9FF1200D9CFE6FFE1CFD9FFE652E0
:10033000DF6A020EDF5C01E393D0DF50280DF3CFBC
:10034000E9FFF4CFEAFF000EE926020EEA22190EB9
:10035000E926000EEA22EF6ADF50280DF3CFE9FF0D
:10036000F4CFEAFF000EE926020EEA221A0EE92671
:10037000000EEA22EF6ADF50280DF3CFE9FFF4CF39
:10038000EAFF000EE926020EEA22010EEF6EDF50B0
:10039000280DF3CFE9FFF4CFEAFF000EE926020EA5
:1003A000EA221B0EE926000EEA22EF6ADF50280D32
:1003B000F3CFE9FFF4CFEAFF000EE926020EEA22AE
:1003C0001C0EE926000EEA22EF68DF50280DF3CF5D
:1003D000E9FFF4CFEAFF000EE926020EEA22230E1F
:1003E000E926000EEA22EECF10F0EECF11F0EECFAC
:1003F00012F0EFCF13F0DF50280DF3CFE9FFF4CF69
:10040000EAFF000EE926020EEA221F0EE926000E80
:10041000EA2210C0EEFF11C0EEFF12C0EEFF13C0C3
:10042000EEFFDF50280DF3CFE9FFF4CFEAFF000E17
:10043000E926020EEA22EF50E66EDF50280DF3CFD8
:10044000E9FFF4CFEAFF000EE926020EEA22270EAA
:10045000E926000EEA22E552E750EF6EDF2A69D75F
:10046000E552E552E7CFD9FF1200D9CFE6FFE1CF41
:10047000D9FFE652DF6AABA207D0AB98080EE66E52
:100480006BEC0DF0E552AB886BA207D06B98080EB1
:10049000E66E6BEC0DF0E5526B885CEC08F0010841
:1004A0000AE179EC08F0DF6EDFCFE6FF1DEC07F024
:1004B000E55255EC07F03FEC08F0010808E1A1EC2B
:1004C00008F0DF6EDFCFE6FF39EC07F0E55200D031
:1004D000E552E552E7CFD9FF1200D9CFE6FFE1CFD1
:1004E000D9FF020EE126FC0EDB50280DF3CFE9FF09
:1004F000F4CFEAFF000EE926020EEA22050EE926F5
:10050000000EEA22E9CF10F0EACF11F0FC0EDB502A
:10051000280DF3CFE9FFF4CFEAFF000EE926020E23
:10052000EA22190EE926000EEA22EF040F01102438
:10053000E96E000E1120EA6EEFCFDFFF010EDB6ADD
:10054000FC0EDB50280DF3CFE9FFF4CFEAFF000EDD
:10055000E926020EEA22050EE926000EEA22EF0441
:1005600014E0FC0EDB50280DF3CFE9FFF4CFEAFFD7
:10057000000EE926020EEA22050EE926000EEA2206
:10058000EF50FF0802E0000E7AD0FC0EDB50280D81
:10059000F3CFE9FFF4CFEAFF000EE926020EEA22CC
:1005A000190EE926000EEA22EF04E66EFC0EDB507F
:1005B000280DF3CFE9FFF4CFEAFF000EE926020E83
:1005C000EA22050EE926000EEA22E9CF10F0EACF72
:1005D00011F010C0E6FF11C0E6FFC9D8E552E552A0
:1005E000E552E76E010EE7CFDBFFDB50DF5C3DE15C
:1005F000FC0EDB50280DF3CFE9FFF4CFEAFF000E2D
:10060000E926020EEA22190EE926000EEA22EF067A
:10061000FC0EDB50280DF3CFE9FFF4CFEAFF000E0C
:10062000E926020EEA22050EE926000EEA22E9CFAB
:1006300010F0EACF11F0FC0EDB50280DF3CFE9FFEC
:10064000F4CFEAFF000EE926020EEA22190EE9268F
:10065000000EEA22EF500F011024E96E000E112067
:10066000EA6EEF6A010E0BD00AD0FD0EDBCFE9FF78
:10067000FE0EDBCFEAFFF10EEF6E020E00D0106E21
:10068000020EE15C02E2E16AE552E16E1050E552D1
:10069000E7CFD9FF1200D9CFE6FFE1CFD9FF020E95
:1006A000E126DF6A010EDB6A1AC2E6FF0F0EE66E74
:1006B000020EE66E5CD8E552E552E552DF6E03C2EB
:1006C000E6FF1DEC07F0E552010EDB6A02011A514C
:1006D000F36E010EDBCFF4FFF350F45C0FE2010E7A
:1006E000DB50EA6A0F0FE96E020EEA22EF50E66E67
:1006F0001DEC07F0E552010EDB2AE8D7DFCFE6FF5D
:100700001DEC07F0E55204C2E6FF1DEC07F0E552D0
:10071000020EE15C02E2E16AE552E16EE552E7CFEA
:10072000D9FF1200D9CFE6FFE1CFD9FFFD0EDBCF15
:10073000F6FFFE0EDBCFF7FF0800F55012E0FD0ECE
:10074000DBCFF6FFFE0EDBCFF7FF0800F550E66EBD
:100750001DEC07F0E552FD0EDB2AFE0E01E3DB2A5D
:10076000E5D755EC07F0E552E7CFD9FF1200D9CF16
:10077000E6FFE1CFD9FF030EE126DF6A010EDB6A57
:10078000FC0EDB50F36E010EDBCFF4FFF350F45C94
:1007900012E2010EDB50E76EFD0EDBCFE9FFFE0E2D
:1007A000DBCFEAFFE750E926000EEA22EF50DF1A1E
:1007B000010EDB2AE5D7DF50106E030EE15C03E289
:1007C00000D0E16AE552E16E1050E552E7CFD9FF63
:1007D0001200D9CFE6FFE1CFD9FF1C0EE126DF6A78
:1007E000D950010FE96EDACFEAFFEE6AEE6AEE6ADF
:1007F000EE6AEE6AEE6AEE6AEE6AEE6AEE6AEE6A39
:10080000EE6AEE6AEE6AEE6AEE6AEE6AEE6AEE6A28
:10081000EE6AEE6AEE6AEE6AEE6A190EDB6AD9CF0C
:1008200010F0DACF11F0DBCFF3FFDB2AF3500F012A
:100830001024E96E000E1120EA6EAA0EEF6EFE0E75
:10084000DB50020FE66ED9CF10F0DACF11F0190E9F
:10085000DBCFF3FFDB2AF3501024E96E000E1120EA
:10086000EA6EE552E750EF6ED9CF10F0DACF11F013
:10087000190EDBCFF3FFDB2AF3501024E96E000ED4
:100880001120EA6EFA0EDBCFEFFFD9CF10F0DACFEE
:1008900011F0190EDBCFF3FFDB2AF3501024E96EC1
:1008A000000E1120EA6EFD0EDBCFEFFF1A0EDB6AA1
:1008B000FA0EDB50F36E1A0EDBCFF4FFF350F45C4C
:1008C00025E21A0EDB50E76EFB0EDBCFE9FFFC0ED4
:1008D000DBCFEAFFE750E926000EEA22EF50E66E92
:1008E000D9CF10F0DACF11F01A0EDBCFE6FF190ED8
:1008F000DB50E552E7241024E96E000E1120EA6E69
:10090000E552E750EF6E1A0EDB2AD2D7190EDBCF75
:10091000E7FF1A0EDB50E726190EE7CFDBFFDB04FB
:10092000E66ED950010FE66E000EDA20E66E1FDF8C
:10093000E552E552E552E76E1B0EE7CFDBFFDB50D9
:10094000AA0804E01B0EDB50BB0814E1020EDB2AF0
:10095000190EDB04E66ED950010FE66E000EDA20A8
:10096000E66E05DFE552E552E552E76E1B0EE7CF76
:10097000DBFFE5D7D9CF10F0DACF11F0190EDBCFBE
:10098000F3FFDB2AF3500F011024E96E000E112053
:10099000EA6E1B0EDBCFEFFFD9CF10F0DACF11F0EC
:1009A000190EDBCFF3FFDB2AF3501024E96E000EA3
:1009B0001120EA6EBB0EEF6E1A0EDB6A190EDB50C9
:1009C000F36E1A0EDBCFF4FFF350F45C14E2D9CFD0
:1009D00010F0DACF11F01A0EDB500F011024E96E7F
:1009E000000E1120EA6EEF50E66E1DEC07F0E552A6
:1009F0001A0EDB2AE3D755EC07F01C0EE15C02E28D
:0E0A0000E16AE552E16EE552E7CFD9FF120040
:020A0E00DACF3D
:100A1000E4FFE2CFDAFFE9CFE4FFEACFE4FFF6CF6D
:100A2000E4FFF7CFE4FFF5CFE4FFF3CFE4FFF4CF2B
:100A3000E4FFFACFE4FF00EE00F0100EE80403E359
:100A4000EECFE4FFFBD700EE10F0040EE80403E362
:100A5000EECFE4FFFBD7E652D9CFE6FFE1CFD9FFD7
:100A6000E652A1EC0CF0DF6E06013F513F2BEA6A23
:100A7000420FE96E060EEA22DFCFEFFF3C0E3F5D2C
:100A800001E33F6B412B9E9AE552E552E7CFD9FF38
:100A9000E55200EE13F0040EE80403E3E5CFEDFFAA
:100AA000FBD700EE0FF0100EE80403E3E5CFEDFFF7
:100AB000FBD7E5CFFAFFE5CFF4FFE5CFF3FFE5CFB6
:100AC000F5FFE5CFF7FFE5CFF6FFE5CFEAFFE5CF8E
:100AD000E9FFE5CFDAFF11003C0E06013F5D01E3BF
:100AE0003F6B3C0EBD5D01E3BD6B1200DACFE4FF4E
:100AF000E2CFDAFFE9CFE4FFEACFE4FFF6CFE4FF8D
:100B0000F7CFE4FFF5CFE4FFF3CFE4FFF4CFE4FF4A
:100B1000FACFE4FF00EE00F0100EE80403E3EECF9E
:100B2000E4FFFBD700EE10F0040EE80403E3EECF81
:100B3000E4FFFBD7E652D9CFE6FFE1CFD9FFE6527B
:100B400082EC0CF0DF6E0601BD51BD2BEA6AC00FCE
:100B5000E96E060EEA22DFCFEFFF3C0EBD5D01E33A
:100B6000BD6BBF2BA49AE552E552E7CFD9FFE55202
:100B700000EE13F0040EE80403E3E5CFEDFFFBD72E
:100B800000EE0FF0100EE80403E3E5CFEDFFFBD716
:100B9000E5CFFAFFE5CFF4FFE5CFF3FFE5CFF5FFB3
:100BA000E5CFF7FFE5CFF6FFE5CFEAFFE5CFE9FFB9
:100BB000E5CFDAFF1100DACFE4FFE2CFDAFFE9CFC9
:100BC000E4FFEACFE4FFE652D9CFE6FFE1CFD9FF59
:100BD000E6520601025105E1ACA2FED78696AC9A18
:100BE0001BD00151EA6A030FE96E060EEA22EFCF2D
:100BF000DFFFDF50AD6E012B3C0E015D01E3016BA9
:100C0000000EE76E0219E8AE02D0023503D0E750BD
:100C1000D880025501E20207E552E552E7CFD9FF3D
:100C2000E552E5CFEAFFE5CFE9FFE5CFDAFF1100B6
:100C3000DACFE4FFE2CFDAFFE9CFE4FFEACFE4FF67
:100C4000E652D9CFE6FFE1CFD9FFE6520601805147
:100C500005E16CA2FED786986C9A1BD07F51EA6A98
:100C6000810FE96E060EEA22EFCFDFFFDF506D6ED7
:100C70007F2B3C0E7F5D01E37F6B000EE76E8019DA
:100C8000E8AE02D0803503D0E750D880805501E22D
:100C90008007E552E552E7CFD9FFE552E5CFEAFFFD
:100CA000E5CFE9FFE5CFDAFF1100D9CFE6FFE1CFCD
:100CB000D9FFE6527C0EDF6ED950FB0FE96EFF0EB6
:100CC000DA20EA6EEE2A000EEE22EE22EE22D95053
:100CD000FB0FE96EFF0EDA20EA6E040EE76ED89085
:100CE000EF36010EEB36020EEB36030EEB36E7065F
:100CF000F6E1106A480E116EE80E126E010E136EC8
:100D000010C004F011C005F012C006F013C007F0C7
:100D1000FB0EDBCF09F0FC0EDBCF0AF0FD0EDBCFC4
:100D20000BF0FE0EDBCF0CF01CEC0CF0FB0E04C045
:100D3000DBFFFC0E05C0DBFFFD0E06C0DBFFFE0E79
:100D400007C0DBFFFB0EDBCFE6FFFC0EDBCFE6FFD1
:100D5000DFCFE6FF74EC0BF0E552E552E552AB8EC7
:100D6000AC8AAC9E9D8A9F8AE552E552E7CFD9FFB7
:100D70001200D9CFE6FFE1CFD9FFE6527C0EDF6E3D
:100D8000D950FB0FE96EFF0EDA20EA6EEE2A000E54
:100D9000EE22EE22EE22D950FB0FE96EFF0EDA2092
:100DA000EA6E040EE76ED890EF36010EEB36020EB7
:100DB000EB36030EEB36E706F6E1106A480E116ECD
:100DC000E80E126E010E136E10C004F011C005F093
:100DD00012C006F013C007F0FB0EDBCF09F0FC0ECB
:100DE000DBCF0AF0FD0EDBCF0BF0FE0EDBCF0CF0FD
:100DF0001CEC0CF0FB0E04C0DBFFFC0E05C0DBFF9F
:100E0000FD0E06C0DBFFFE0E07C0DBFFFB0EDBCFD7
:100E1000E6FFFC0EDBCFE6FFDFCFE6FF2FEC0BF0AB
:100E2000E552E552E5526B8E6C8A6C9EA38AA58AC8
:100E3000E552E552E7CFD9FF1200D9CFE6FFE1CF67
:100E4000D9FFACA2FED706010051002BEA6A030FBE
:100E5000E96E060EEA22FE0EDBCFEFFF022B3C0E00
:100E6000005D01E3006B010E00D0E552E7CFD9FF32
:100E70001200D9CFE6FFE1CFD9FF6CA2FED7060161
:100E80007E517E2BEA6A810FE96E060EEA22FE0E83
:100E9000DBCFEFFF802B3C0E7E5D01E37E6B010E0E
:100EA00000D0E552E7CFD9FF1200D9CFE6FFE1CF5E
:100EB000D9FF060EE1268686010EF36E020EF3CFF1
:100EC000DBFF030EDB6A020EDBCF10F0DB06030E46
:100ED000DBCF11F001E2DB061050111006E0080E26
:100EE000E66E30EC0DF0E552EED7000E0601E76E2F
:100EF0000219E8AE02D0023503D0E750D88002557F
:100F000023E20151EA6A030FE96E060EEA22010E9E
:100F1000EFCFDBFFACA2FED7010EDB50AD6EACA273
:100F2000FED70601012B3C0E015D01E3016B000EB3
:100F3000E76E0219E8AE02D0023503D0E750D88040
:100F4000025501E20207D1D78696010EF36E040E18
:100F5000F3CFDBFF050EDB6A040EDBCF10F0DB0600
:100F6000050EDBCF11F001E2DB061050111006E098
:100F7000080EE66E30EC0DF0E552EED7106E060E60
:100F8000E15C02E2E16AE552E16E1050E552E7CF22
:100F9000D9FF1200D9CFE6FFE1CFD9FF060EE12637
:100FA0008688010EF36E020EF3CFDBFF030EDB6AC1
:100FB000020EDBCF10F0DB06030EDBCF11F001E2F7
:100FC000DB061050111006E0080EE66E30EC0DF056
:100FD000E552EED7000E0601E76E8019E8AE02D0AA
:100FE000803503D0E750D880805523E27F51EA6AEC
:100FF000810FE96E060EEA22010EEFCFDBFF6CA235
:10100000FED7010EDB506D6E6CA2FED706017F2B62
:101010003C0E7F5D01E37F6B000EE76E8019E8AE4A
:1010200002D0803503D0E750D880805501E2800798
:10103000D1D78698010EF36E040EF3CFDBFF050EB9
:10104000DB6A040EDBCF10F0DB06050EDBCF11F000
:1010500001E2DB061050111006E0080EE66E30ECDF
:101060000DF0E552EED7106E060EE15C02E2E16A89
:10107000E552E16E1050E552E7CFD9FF1200D9CF0B
:10108000E6FFE1CFD9FFE652DF6AA39A000E060120
:10109000E76EBF19E8AE02D0BF3503D0E750D88065
:1010A000BF5502E2010EDF6EA38ADF5000D0E55289
:1010B000E552E7CFD9FF1200D9CFE6FFE1CFD9FF44
:1010C000E652DF6A9D9A000E0601E76E4119E8AE0E
:1010D00002D0413503D0E750D880415502E2010EDD
:1010E000DF6E9D8ADF5000D0E552E552E7CFD9FF91
:1010F0001200D9CFE6FFE1CFD9FFE65206014051F9
:10110000402BEA6A420FE96E060EEA22EFCFDFFFBC
:101110003C0E405D01E3406B9D9A000EE76E411965
:10112000E8AE02D0413503D0E750D880415501E206
:1011300041079D8ADF5000D0E552E552E7CFD9FF45
:101140001200D9CFE6FFE1CFD9FFE6520601BE512A
:10115000BE2BEA6AC00FE96E060EEA22EFCFDFFF70
:101160003C0EBE5D01E3BE6BA39A000EE76EBF1995
:10117000E8AE02D0BF3503D0E750D880BF5501E2BA
:10118000BF079D8ADF5000D0E552E552E7CFD9FF77
:0211900012004B
:0E119200DACFE4FFE2CFDAFFE9CFE4FFEACFE5
:1011A000E4FFF6CFE4FFF7CFE4FFF5CFE4FFF3CFA2
:1011B000E4FFF4CFE4FFFACFE4FF00EE00F0100EFE
:1011C000E80403E3EECFE4FFFBD700EE10F0040EDB
:1011D000E80403E3EECFE4FFFBD7E652F29400010C
:1011E0006E2B000E6F23702B7123722B7323742BC5
:1011F00075237607775B773504E276510008000E99
:10120000775508E3782B000E79237A237B23C80EC9
:10121000766F776B6251631107E005D063C0FAFF08
:1012200000016251F96EFADF60C0E6FF61C0E6FFBF
:10123000F8EC0CF0E552E552E55200EE13F0040E26
:10124000E80403E3E5CFEDFFFBD700EE0FF0100E4F
:10125000E80403E3E5CFEDFFFBD7E5CFFAFFE5CFE9
:10126000F4FFE5CFF3FFE5CFF5FFE5CFF7FFE5CFDF
:10127000F6FFE5CFEAFFE5CFE9FFE5CFDAFF1100A2
:10128000DACFE4FFE2CFDAFFE9CFE4FFEACFE4FF11
:10129000F6CFE4FFF7CFE4FFF5CFE4FFF3CFE4FFB1
:1012A000F4CFE4FFFACFE4FF00EE00F0100EE80404
:1012B00003E3EECFE4FFFBD700EE10F0040EE804EA
:1012C00003E3EECFE4FFFBD7E6529E9064C0E6FF57
:1012D00065C0E6FFDCEC0CF0E552E552000166511A
:1012E000671107E005D067C0FAFF00016651F96E8B
:1012F000FADFE55200EE13F0040EE80403E3E5CF55
:10130000EDFFFBD700EE0FF0100EE80403E3E5CF8E
:10131000EDFFFBD7E5CFFAFFE5CFF4FFE5CFF3FF15
:10132000E5CFF5FFE5CFF7FFE5CFF6FFE5CFEAFF25
:10133000E5CFE9FFE5CFDAFF1100DACFE4FFE2CF36
:10134000DAFFE9CFE4FFEACFE4FFF6CFE4FFF7CF1F
:10135000E4FFF5CFE4FFF3CFE4FFF4CFE4FFFACFEF
:10136000E4FF00EE00F0100EE80403E3EECFE4FF2C
:10137000FBD700EE10F0040EE80403E3EECFE4FF29
:10138000FBD7E652A19268C0E6FF69C0E6FFDCEC3D
:101390000CF0E552E55200016A516B1107E005D0EF
:1013A0006BC0FAFF00016A51F96EFADFE55200EEF8
:1013B00013F0040EE80403E3E5CFEDFFFBD700EEE6
:1013C0000FF0100EE80403E3E5CFEDFFFBD7E5CF08
:1013D000FAFFE5CFF4FFE5CFF3FFE5CFF5FFE5CF6B
:1013E000F7FFE5CFF6FFE5CFEAFFE5CFE9FFE5CF71
:1013F000DAFF1100D9CFE6FFE1CFD9FF9F0EE66EED
:1014000014EC0DF0E552FD0EDBCF60F0FE0EDBCFED
:1014100061F0FB0EDBCF62F0FC0EDBCF63F0FD0E64
:10142000DBCFE6FFFE0EDBCFE6FFF8EC0CF0E5527B
:10143000E552E552E7CFD9FF1200D9CFE6FFE1CF61
:10144000D9FFC50EE66E61EC0CF0E552FD0EDBCF68
:10145000E6FFFE0EDBCFE6FFDCEC0CF0E552E552DA
:101460009F80FD0EDBCF64F0FE0EDBCF65F0FB0E40
:10147000DBCF66F0FC0EDBCF67F0E552E7CFD9FF9C
:101480001200D9CFE6FFE1CFD9FFCD0EE66E40ECDA
:101490000CF0E552FD0EDBCFE6FFFE0EDBCFE6FFE4
:1014A000C0EC0CF0E552E552FD0EDBCF68F0FE0E0D
:1014B000DBCF69F0FB0EDBCF6AF0FC0EDBCF6BF00D
:1014C000E552E7CFD9FF1200D9CFE6FFE1CFD9FF30
:1014D000040EE126F29A78C0DFFF010E79C0DBFF2F
:1014E000020E7AC0DBFF030E7BC0DBFFF28ADECF89
:1014F00004F0DECF05F0DECF06F0DDCF07F0DD52E1
:10150000DD52040EE15C03E200D0E16AE552E16ED7
:08151000E552E7CFD9FF1200FC
:08151800D9CFE6FFE1CFD9FFB6
:10152000030EE126B6EC0BF05EEC0DF0DD0EE66E80
:10153000CC0EE66EBB0EE66EAA0EE66E3DEC00F03B
:10154000E552E552E552E552E00EE66E170EE66E04
:10155000E66ABEEC00F0E552E552E5520C0EE66E8E
:10156000180EE66E010EE66EBEEC00F0E552E55296
:10157000E552000EE66EE66ABF0EE66EE00EE66E1F
:10158000FAEC09F0E552E552E552E55215EC00F0AF
:101590000001FA0E6E5D000E6F5905E361EC0DF06F
:1015A00000016E6B6F6B35EC02F0F2D7030EE15C5D
:1015B00002E2E16AE552E16EE552E7CFD9FF12009F
:1015C000300EF66E000EF76E000EF86E0001090088
:1015D000F550816F0900F550826F03E1816701D0FA
:1015E0003DD00900F5507C6F0900F5507D6F090072
:1015F000F5507E6F09000900F550E96E0900F550BD
:10160000EA6E090009000900F5507F6F0900F550E6
:10161000806F09000900F6CF83F0F7CF84F0F8CF90
:1016200085F07CC0F6FF7DC0F7FF7EC0F8FF0001AB
:101630007F5302E1805307E00900F550EE6E7F070B
:10164000F8E28007F9D783C0F6FF84C0F7FF85C0B2
:0E165000F8FF00018107000E825BBFD7120079
:02165E00D9CFE2
:10166000E6FFDACFE6FFE1CFD9FFE2CFDAFF6C6A1F
:101670006B6AFD0EDBB06C88DBA202D06C8C6B8CCD
:10168000DBB46C8EDBA602D06B8801D06B8ADBA842
:1016900002D06C8401D06C94DBBA6B86DBAC02D0D8
:1016A000A38A01D0A39ADBAE02D0A38801D0A3986D
:1016B000FB0EDB506F6EFC0EDBCF11F011C010F093
:1016C000116A10507D6E6C8A6B8E989298846C5063
:1016D000100B04E06C50800B01E19882E552E5CFDD
:0816E000DAFFE7CFD9FF120089
:0816E800D9CFE6FFDACFE6FFDF
:1016F000E1CFD9FFE2CFDAFFAC6AAB6AFD0EDBB017
:10170000AC88DBA202D0AC8CAB8CDBB4AC8EDBA69D
:1017100002D0AB8801D0AB8ADBB8AC84DBBAAB8635
:10172000DBAC02D09D8A01D09D9ADBAE02D09D88B1
:1017300001D09D98FB0EDB50AF6EFC0EDBCF11F09D
:1017400011C010F0116A10507F6EAC8AAB8E949C61
:10175000948EAC50100B04E0AC50800B01E1948CE3
:0C176000E552E5CFDAFFE7CFD9FF120019
:04176C00D9CFE6FFEC
:10177000E1CFD9FF020EE126700ED36E050EDE6EAC
:10178000DD6ADFCF10F0DF06010EDBCF11F001E2E2
:10179000DB061050111006E0080EE66E30EC0DF07E
:1017A000E552EFD7C26A0F0EC16EB50EC06E800E45
:1017B0009C6E98908690989686969898869898921F
:1017C0009884949C948EF19E020EE15C02E2E16AA0
:0C17D000E552E16EE552E7CFD9FF1200B0
:0417DC0012001200E5
:1017E000D9CFE6FFE1CFD9FF020EE126010EDB6A79
:1017F000DB50106E020EE15C03E200D0E16AE552BC
:10180000E16E1050E552E7CFD9FF1200D9CFE6FFC5
:10181000E1CFD9FF020EE126010EDB6ADB50106E2C
:10182000020EE15C03E200D0E16AE552E16E105085
:08183000E552E7CFD9FF1200D9
:08183800036A026A016A006AFA
:10184000200EE76ED8900436053606360736003689
:101850000136023603360950005C0A5001580B501D
:1018600002580C50035809E30950005E0A50015A0F
:101870000B50025A0C50035A042AE72EE4D71200E8
:10188000D9CFE6FFDACFE6FFE1CFD9FFE2CFDAFF2B
:10189000FD0EDB50360BB16EB36AB26AA192FD0E3B
:1018A000DBAE02D0A08201D0A092DBA002D0B18E2C
:1018B00001D0B19EB180E552E5CFDAFFE7CFD9FF85
:0218C000120014
:0E18C200D9CFE6FFDACFE6FFE1CFD9FFE2CFC4
:1018D000DAFFFD0EDB507E0BCD6EFD0EDBAC02D0D1
:1018E000CD8E01D0CD9ECF6ACE6A9E90DBAE02D067
:1018F0009D8001D09D90CD80E552E5CFDAFFE7CF06
:04190000D9FF1200F9
:0C190400D9CFE6FFDACFE6FFE1CFD9FF34
:10191000E2CFDAFFE652F20E000188176BAC03D07B
:1019200088916BB088816BB488856BB288876E5064
:10193000DF6EDF50E552E552E5CFDAFFE7CFD9FFA2
:02194000120093
:0E194200D9CFE6FFDACFE6FFE1CFD9FFE2CF43
:10195000DAFFE652F20E00018917ABAC03D0899191
:10196000ABB08981ABB48985ABB28987AE50DF6EED
:10197000DF50E552E552E5CFDAFFE7CFD9FF12009D
:10198000D9CFE6FFDACFE6FFE1CFD9FFE2CFDAFF2A
:10199000E652E652FC0EDBCFDEFFDBCFDDFF010EB1
:1019A000DB50B36EDF50B26EE552E552E552E5CF43
:0819B000DAFFE7CFD9FF1200B6
:0819B800D9CFE6FFDACFE6FF0C
:1019C000E1CFD9FFE2CFDAFFE652E652FC0EDBCFE1
:1019D000DEFFDBCFDDFF010EDB50CF6EDF50CE6EC2
:1019E000E552E552E552E5CFDAFFE7CFD9FF120025
:1019F000D9CFE6FFDACFE6FFE1CFD9FFE2CFDAFFBA
:101A0000E652E652FC0EDBCFDEFFDBCFDDFF010E40
:101A1000DB50D76EDF50D66EE552E552E552E5CF8A
:081A2000DAFFE7CFD9FF120045
:081A2800D9CFE6FFDACFE6FF9B
:101A3000E1CFD9FFE2CFDAFFFD0EDB507F0BD56E91
:101A4000D76AD66AF294FD0EDBAE02D0F28A01D0DC
:101A5000F29AD58EE552E5CFDAFFE7CFD9FF120033
:101A6000FF0EE350146E480E01D04C0EE76EE72EC9
:101A7000FED7E76AE72EFED7142EF7D70000120034
:101A8000600EF36E00EE00F00F0E01D81200EA6057
:101A900002D0EE6AFCD7F350E9601200EE6AFCD780
:101AA0001EEE00F02EEE00F0F86A0F9CE0EC0AF05B
:0C1AB00003EC00F08CEC0AF0FBD71200F5
:041ABC0000018B6B2F
:101AC000120000018B0503E18B6B869003D0010EA1
:061AD0008B6F86801200FE
:0A1AD600FF0EE350E84E120000007E
:0C1AE00000D000D000D0E82EFAD7120091
:041AEC00434F4D0A0D
:011AF00000F5
:0F1AF100000000000000000000000000000000E6
:101B000000000000000000000000000000000000D5
:101B100000000000000000000000000000000000C5
:101B200000000000000000000000000000000000B5
:101B300000000000000000000000000000000000A5
:101B40000000000000000000000000000000000095
:101B50000000000000000000000000000000000085
:101B60000000000000000000000000000000000075
:101B70000000000000000000000000000000000065
:101B80000000000000000000000000000000000055
:101B90000000000000000000000000000000000045
:101BA0000000000000000000000000000000000035
:101BB0000000000000000000000000000000000025
:101BC0000000000000000000000000000000000015
:101BD0000000000000000000000000000000000005
:0D1BE00000000000000000000000000000F8
:031BED00000000F5
:101BF00000000000000000000000000000000000E5
:101C000000000000000000000000000000000000D4
:101C100000000000000000000000000000000000C4
:101C200000000000000000000000000000000000B4
:0D1C300000000000000000000000000000A7
:031C3D00000000A4
:101C40000000000000000000000000000000000094
:021C5000000092
:0E1C5200000000000000000000000000000084
:0E1C60000000000000000000C80000000000AE
:011C6E000075
:011C6F00FF75
:011C7000FF74
:020000040030CA
:0100010008F6
:010002001BE2
:0100030012EA
:01000400F308
:010005008377
:010006008178
:01000800F106
:010009008076
:01000A00FFF6
:01000B00E014
:01000C00FFF4
:01000D0040B2
:00000001FF
