:020000040000FA
:06000000F5EF13F0120001
:020006001200E6
:08000800F2A402D0D0EF0EF0CB
:100010009EAA02D00FEF0BF01200D08EF28E1200CB
:100020000700542B0000F80E000002000000522BC5
:100030000000F60E000002000000512B0000FD0E33
:10004000000001000000372B0000000F00001A0024
:1000500000002B2B0000000100000C000000272AEC
:10006000000000070000040100003B280000000D14
:060070000000EC0100009D
:0A007600D9CFE6FFE1CFD9FF020E5B
:10008000E126DE6ADD6ADECF10F0DDCF11F0D89018
:10009000115004E6010E105C000E11586EE2DECF26
:1000A000E9FFDDCFEAFF040EEA02F3CFEAFFE950F1
:1000B000EA26040EE902F3CFE9FFF450EA26000E27
:1000C000E926070EEA22EE52FE0EDBCFEFFFDECF6F
:1000D000E9FFDDCFEAFF040EEA02F3CFEAFFE950C1
:1000E000EA26040EE902F3CFE9FFF450EA26000EF7
:1000F000E926070EEA22020EE926000EEA22FD0E8C
:10010000DBCFEFFFDECFE9FFDDCFEAFF040EEA022F
:10011000F3CFEAFFE950EA26040EE902F3CFE9FF44
:10012000F450EA26000EE926070EEA22030EE9261D
:10013000000EEA22FC0EDBCFEFFFDECFE9FFDDCFC2
:10014000EAFF040EEA02F3CFEAFFE950EA26040EC2
:10015000E902F3CFE9FFF450EA26000EE926070E84
:10016000EA22040EE926000EEA22FB0EDBCFEFFFA7
:10017000DF2A010E01E3DB2A86D730D8020EE15CCC
:1001800002E2E16AE552E16EE552E7CFD9FF1200E3
:10019000D9CFE6FFE1CFD9FFFE0EDB50E96EEA6A68
:1001A000040EEA02F3CFEAFFE950EA26040EE90260
:1001B000F3CFE9FFF450EA26000EE926070EEA2203
:1001C000F90EE926000EEA22FC0EDBCFEEFFFD0E53
:1001D000DBCFEDFFE552E7CFD9FF1200D9CFE6FF25
:1001E000E1CFD9FFE652E66A4B0EE66EE66AE66AB2
:1001F0005DEC0CF0E552E552E552E552DF6A010E86
:10020000DF5C01E3E4D0DF50E96EEA6A040EEA0243
:10021000F3CFEAFFE950EA26040EE902F3CFE9FF43
:10022000F450EA26000EE926070EEA22F50EE9262A
:10023000000EEA22EF6ADF50E96EEA6A040EEA0273
:10024000F3CFEAFFE950EA26040EE902F3CFE9FF13
:10025000F450EA26000EE926070EEA22F60EE926F9
:10026000000EEA22EF6ADF50E96EEA6A040EEA0243
:10027000F3CFEAFFE950EA26040EE902F3CFE9FFE3
:10028000F450EA26000EE926070EEA22010EEF6E70
:10029000DF50E96EEA6A040EEA02F3CFEAFFE950A2
:1002A000EA26040EE902F3CFE9FFF450EA26000E35
:1002B000E926070EEA22F70EE926000EEA22EF6A87
:1002C000DF50E96EEA6A040EEA02F3CFEAFFE95072
:1002D000EA26040EE902F3CFE9FFF450EA26000E05
:1002E000E926070EEA22F80EE926000EEA22EF6858
:1002F000DF50E96EEA6A040EEA02F3CFEAFFE95042
:10030000EA26040EE902F3CFE9FFF450EA26000ED4
:10031000E926070EEA22FF0EE926000EEA22EECFBA
:1003200010F0EECF11F0EECF12F0EFCF13F0DF5060
:10033000E96EEA6A040EEA02F3CFEAFFE950EA2620
:10034000040EE902F3CFE9FFF450EA26000EE92695
:10035000070EEA22FB0EE926000EEA2210C0EEFF8D
:1003600011C0EEFF12C0EEFF13C0EEFFDF50E96ECA
:10037000EA6A040EEA02F3CFEAFFE950EA26040E25
:10038000E902F3CFE9FFF450EA26000EE926070E52
:10039000EA22EF50E66EDF50E96EEA6A040EEA02E6
:1003A000F3CFEAFFE950EA26040EE902F3CFE9FFB2
:1003B000F450EA26000EE926070EEA22030EE9268B
:1003C000010EEA22E552E750EF6EDF2A18D7E55218
:1003D000E552E7CFD9FF1200D9CFE6FFE1CFD9FF31
:1003E000E652DF6A010EDF5C01E3E4D0DF50E96E24
:1003F000EA6A040EEA02F3CFEAFFE950EA26040EA5
:10040000E902F3CFE9FFF450EA26000EE926070ED1
:10041000EA22F50EE926000EEA22EF6ADF50E96EC5
:10042000EA6A040EEA02F3CFEAFFE950EA26040E74
:10043000E902F3CFE9FFF450EA26000EE926070EA1
:10044000EA22F60EE926000EEA22EF6ADF50E96E94
:10045000EA6A040EEA02F3CFEAFFE950EA26040E44
:10046000E902F3CFE9FFF450EA26000EE926070E71
:10047000EA22010EEF6EDF50E96EEA6A040EEA022C
:10048000F3CFEAFFE950EA26040EE902F3CFE9FFD1
:10049000F450EA26000EE926070EEA22F70EE926B6
:1004A000000EEA22EF6ADF50E96EEA6A040EEA0201
:1004B000F3CFEAFFE950EA26040EE902F3CFE9FFA1
:1004C000F450EA26000EE926070EEA22F80EE92685
:1004D000000EEA22EF68DF50E96EEA6A040EEA02D3
:1004E000F3CFEAFFE950EA26040EE902F3CFE9FF71
:1004F000F450EA26000EE926070EEA22FF0EE9264E
:10050000000EEA22EECF10F0EECF11F0EECF12F097
:10051000EFCF13F0DF50E96EEA6A040EEA02F3CF80
:10052000EAFFE950EA26040EE902F3CFE9FFF450AE
:10053000EA26000EE926070EEA22FB0EE926000E47
:10054000EA2210C0EEFF11C0EEFF12C0EEFF13C092
:10055000EEFFDF50E96EEA6A040EEA02F3CFEAFF2B
:10056000E950EA26040EE902F3CFE9FFF450EA2647
:10057000000EE926070EEA22EF50E66EDF50E96E24
:10058000EA6A040EEA02F3CFEAFFE950EA26040E13
:10059000E902F3CFE9FFF450EA26000EE926070E40
:1005A000EA22030EE926010EEA22E552E750EF6E39
:1005B000DF2A18D7E552E552E7CFD9FF1200D9CF8D
:1005C000E6FFE1CFD9FF060EE126DF6A70EC10F0FE
:1005D00004C0FFF705C000F806C001F807C002F824
:1005E000ABA207D0AB98100EE66E10EC14F0E552FB
:1005F000AB88010EDB6AF36EDBCFF4FFF350F45CE3
:1006000002E319EF08F0010EDB50E96EEA6A040E0E
:10061000EA02F3CFEAFFE950EA26040EE902F3CF3B
:10062000E9FFF450EA26000EE926070EEA22FB0E47
:10063000E926000EEA22EECF10F0EECF11F0EECF59
:1006400012F0EFCF13F0010EDB50E96EEA6A040EF0
:10065000EA02F3CFEAFFE950EA26040EE902F3CFFB
:10066000E9FFF450EA26000EE926070EEA22FF0E03
:10067000E926000EEA221050EE1809E11150EE189A
:1006800006E11250EE1803E11350EE1800E101E10B
:10069000BDD0010EDB50E96EEA6A040EEA02F3CF28
:1006A000EAFFE950EA26040EE902F3CFE9FFF4502D
:1006B000EA26000EE926070EEA22030EE926010EBD
:1006C000EA22EFCF10F0DB50E96EEA6A040EEA028C
:1006D000F3CFEAFFE950EA26040EE902F3CFE9FF7F
:1006E000F450EA26000EE926070EEA22EF50105CCD
:1006F0004DE1010EDB50E96EEA6A040EEA02F3CF27
:10070000EAFFE950EA26040EE902F3CFE9FFF450CC
:10071000EA26000EE926070EEA22EF50020836E12B
:10072000010EDB50E96EEA6A040EEA02F3CFEAFF3B
:10073000E950EA26040EE902F3CFE9FFF450EA2675
:10074000000EE926070EEA22F80EE926000EEA223C
:10075000EF06010EDB50E96EEA6A040EEA02F3CFFF
:10076000EAFFE950EA26040EE902F3CFE9FFF4506C
:10077000EA26000EE926070EEA22F80EE926000E08
:10078000EA22EF5003E12ADD19EF08F0010EDB50F9
:10079000E96EEA6A040EEA02F3CFEAFFE950EA26BC
:1007A000040EE902F3CFE9FFF450EA26000EE92631
:1007B000070EEA22FF0EE926000EEA22EECF10F025
:1007C000EECF11F0EECF12F0EFCF13F0010EDB50B1
:1007D000E96EEA6A040EEA02F3CFEAFFE950EA267C
:1007E000040EE902F3CFE9FFF450EA26000EE926F1
:1007F000070EEA22FB0EE926000EEA2210C0EEFFE9
:1008000011C0EEFF12C0EEFF13C0EEFF010EDB5071
:10081000E96EEA6A040EEA02F3CFEAFFE950EA263B
:10082000040EE902F3CFE9FFF450EA26000EE926B0
:10083000070EEA22EF50030A01E1C2D3010A63E086
:10084000030A02E0C9DDC0D3010EDB5009E163EC0D
:100850000EF0000901E1EDD380EC0EF0DF6E0BD05D
:10086000010EDB0408E146EC0EF0000901E1E1D3E2
:10087000A8EC0EF0DF6E010EDB50E96EEA6A040EA2
:10088000EA02F3CFEAFFE950EA26040EE902F3CFC9
:10089000E9FFF450EA26000EE926070EEA22EE529E
:1008A000EF50DF5C2FE1010EDB50E96EEA6A040EC7
:1008B000EA02F3CFEAFFE950EA26040EE902F3CF99
:1008C000E9FFF450EA26000EE926070EEA22F50EAB
:1008D000E926000EEA22EF6A010EDB50E96EEA6AB1
:1008E000040EEA02F3CFEAFFE950EA26040EE90219
:1008F000F3CFE9FFF450EA26000EE926070EEA22BC
:10090000020EEF6E61D3010EDB5009E163EC0EF0D5
:10091000000901E18ED380EC0EF0DF6E0BD0010EEA
:10092000DB0408E146EC0EF0000901E182D3A8ECFB
:100930000EF0DF6E010EDB50E96EEA6A040EEA0289
:10094000F3CFEAFFE950EA26040EE902F3CFE9FF0C
:10095000F450EA26000EE926070EEA22020EE926E6
:10096000000EEA22EF50DF5C01E04BD2020EDB6AA0
:10097000030EDB68010EDBCFE6FFD950030FE66EF6
:10098000000EDA20E66E5FDBE552E552E552E76ED7
:10099000020EE7CFDBFFDB50020A01E1AFD1030A11
:1009A00005E0010A01E016D217DD43D3010EDB504A
:1009B000E96EEA6A040EEA02F3CFEAFFE950EA269A
:1009C000040EE902F3CFE9FFF450EA26000EE9260F
:1009D000070EEA22F90EE926000EEA22EE50ED108B
:1009E00001E189D1010EDB50E96EEA6A040EEA02E8
:1009F000F3CFEAFFE950EA26040EE902F3CFE9FF5C
:100A0000F450EA26000EE926070EEA22F90EE9263E
:100A1000000EEA22EECF10F0EFCF11F0D950040F04
:100A2000E66E000EDA20E66E010EDB50E96EEA6A31
:100A3000040EEA02F3CFEAFFE950EA26040EE902C7
:100A4000F3CFE9FFF450EA26000EE926070EEA226A
:100A5000F70EE926000EEA22E9CF12F0EACF13F0F2
:100A600012C0E6FF13C0E6FF010EDB50E96EEA6A32
:100A7000040EEA02F3CFEAFFE950EA26040EE90287
:100A8000F3CFE9FFF450EA26000EE926070EEA222A
:100A9000050EE926000EEA22E9CF14F0EACF15F0A0
:100AA000020E1426000E152214C0E6FF15C0E6FF44
:100AB00004D011C0FAFF1050F96EFBDF166E060E5F
:100AC000E15E1650E66E010EDB50E96EEA6A040E36
:100AD000EA02F3CFEAFFE950EA26040EE902F3CF77
:100AE000E9FFF450EA26000EE926070EEA22F60E88
:100AF000E926000EEA22E552E750EF6E010EDB50C8
:100B0000E96EEA6A040EEA02F3CFEAFFE950EA2648
:100B1000040EE902F3CFE9FFF450EA26000EE926BD
:100B2000070EEA22F70EE926000EEA22EF50FF0830
:100B300002E152DC7ED2010EDB50E96EEA6A040E5D
:100B4000EA02F3CFEAFFE950EA26040EE902F3CF06
:100B5000E9FFF450EA26000EE926070EEA227D0E90
:100B6000E926000EEA22FA0EEF6E010EDB50E96E66
:100B7000EA6A040EEA02F3CFEAFFE950EA26040E1D
:100B8000E902F3CFE9FFF450EA26000EE926070E4A
:100B9000EA22F60EE926000EEA22EF2A010EDB50C9
:100BA000E96EEA6A040EEA02F3CFEAFFE950EA26A8
:100BB000040EE902F3CFE9FFF450EA26000EE9261D
:100BC000070EEA22F70EE926000EEA22EF50E66E43
:100BD000010EDB50E96EEA6A040EEA02F3CFEAFF87
:100BE000E950EA26040EE902F3CFE9FFF450EA26C1
:100BF000000EE926070EEA227D0EE926000EEA2203
:100C0000010EE926000EEA22E552E750EF6E010ED2
:100C1000DB50E96EEA6A040EEA02F3CFEAFFE9501C
:100C2000EA26040EE902F3CFE9FFF450EA26000EAB
:100C3000E926070EEA22F60EE926000EEA22EF2A3E
:100C4000DE52020EDD6E010EDB50E96EEA6A040E22
:100C5000EA02F3CFEAFFE950EA26040EE902F3CFF5
:100C6000E9FFF450EA26000EE926070EEA22F60E06
:100C7000E926000EEA22EF50F36E010EDBCFF4FFFF
:100C8000F350F45C37E2040EDBCFE9FF050EDBCF57
:100C9000EAFFEF50E66E010EDB50E96EEA6A040EE1
:100CA000EA02F3CFEAFFE950EA26040EE902F3CFA5
:100CB000E9FFF450EA26000EE926070EEA227D0E2F
:100CC000E926000EEA22E9CF10F0EACF11F0010E7A
:100CD000DB500F011024E96E000E1120EA6EE55280
:100CE000E750EF6E040EDB2A050E01E3DB2A010E4E
:100CF000DB2AA9D702D0ECEC01F06CD0010EDB505E
:100D0000E96EEA6A040EEA02F3CFEAFFE950EA2646
:100D1000040EE902F3CFE9FFF450EA26000EE926BB
:100D2000070EEA227D0EE926000EEA22FA0EEF6E89
:100D3000010EDB50E96EEA6A040EEA02F3CFEAFF25
:100D4000E950EA26040EE902F3CFE9FFF450EA265F
:100D5000000EE926070EEA22F60EE926000EEA2228
:100D6000EF2A010EDB50E96EEA6A040EEA02F3CFC5
:100D7000EAFFE950EA26040EE902F3CFE9FFF45056
:100D8000EA26000EE926070EEA227D0EE926000E6D
:100D9000EA22010EE926000EEA22030EDBCFEFFF66
:100DA000010EDB50E96EEA6A040EEA02F3CFEAFFB5
:100DB000E950EA26040EE902F3CFE9FFF450EA26EF
:100DC000000EE926070EEA22F60EE926000EEA22B8
:100DD000EF2A00D0010EDB50E96EEA6A040EEA0247
:100DE000F3CFEAFFE950EA26040EE902F3CFE9FF68
:100DF000F450EA26000EE926070EEA22030EEF6EF3
:100E0000DED0010EDB50E96EEA6A040EEA02F3CF8F
:100E1000EAFFE950EA26040EE902F3CFE9FFF450B5
:100E2000EA26000EE926070EEA22050EE926000E44
:100E3000EA22E9CF10F0EACF11F00701F551F52BC6
:100E40000F011024E96E000E1120EA6EDFCFEFFFD4
:100E5000010EDB50E96EEA6A040EEA02F3CFEAFF04
:100E6000E950EA26040EE902F3CFE9FFF450EA263E
:100E7000000EE926070EEA22F80EE926000EEA2205
:100E8000EF6A010EDB50E96EEA6A040EEA02F3CF64
:100E9000EAFFE950EA26040EE902F3CFE9FFF45035
:100EA000EA26000EE926070EEA22F50EE926000ED4
:100EB000EA22EFCF10F0780E105C01E280D0010E34
:100EC000DB50E96EEA6A040EEA02F3CFEAFFE9506A
:100ED000EA26040EE902F3CFE9FFF450EA26000EF9
:100EE000E926070EEA227D0EE926000EEA22FA0E16
:100EF000EF6E010EDB50E96EEA6A040EEA02F3CFF0
:100F0000EAFFE950EA26040EE902F3CFE9FFF450C4
:100F1000EA26000EE926070EEA22F60EE926000E62
:100F2000EA22EF2A010EDB50E96EEA6A040EEA02B9
:100F3000F3CFEAFFE950EA26040EE902F3CFE9FF16
:100F4000F450EA26000EE926070EEA227D0EE92675
:100F5000000EEA22010EE926000EEA22F00EEF6EE4
:100F6000010EDB50E96EEA6A040EEA02F3CFEAFFF3
:100F7000E950EA26040EE902F3CFE9FFF450EA262D
:100F8000000EE926070EEA22F60EE926000EEA22F6
:100F9000EF2A010EDB50E96EEA6A040EEA02F3CF93
:100FA000EAFFE950EA26040EE902F3CFE9FFF45024
:100FB000EA26000EE926070EEA22030EEF6E04D0A1
:100FC00072D9ECEC01F000D0010EDB50E96EEA6A58
:100FD000040EEA02F3CFEAFFE950EA26040EE90222
:100FE000F3CFE9FFF450EA26000EE926070EEA22C5
:100FF000EF50E66E010EDB50E96EEA6A040EEA027B
:10100000F3CFEAFFE950EA26040EE902F3CFE9FF45
:10101000F450EA26000EE926070EEA22030EE9261E
:10102000010EEA22E552E750EF6E010EDB2AFBEFDC
:1010300002F0060EE15C02E2E16AE552E16EE55281
:10104000E7CFD9FF1200D9CFE6FFE1CFD9FF020EDB
:10105000E126FC0EDB50E96EEA6A040EEA02F3CFE9
:10106000EAFFE950EA26040EE902F3CFE9FFF45063
:10107000EA26000EE926070EEA22050EE926000EF2
:10108000EA22E9CF10F0EACF11F0FC0EDB50E96E56
:10109000EA6A040EEA02F3CFEAFFE950EA26040EF8
:1010A000E902F3CFE9FFF450EA26000EE926070E25
:1010B000EA22F50EE926000EEA22EF040F011024C1
:1010C000E96E000E1120EA6EEFCFDFFF010EDB6A42
:1010D000FC0EDB50E96EEA6A040EEA02F3CFEAFF87
:1010E000E950EA26040EE902F3CFE9FFF450EA26BC
:1010F000000EE926070EEA22050EE926000EEA2276
:10110000EF50FA081DE0FC0EDB50E96EEA6A040EAF
:10111000EA02F3CFEAFFE950EA26040EE902F3CF30
:10112000E9FFF450EA26000EE926070EEA22050E32
:10113000E926000EEA22EF50FF0802E0000EA7D0D9
:10114000FC0EDB50E96EEA6A040EEA02F3CFEAFF16
:10115000E950EA26040EE902F3CFE9FFF450EA264B
:10116000000EE926070EEA22F50EE926000EEA2215
:10117000EF04E66EFC0EDB50E96EEA6A040EEA024A
:10118000F3CFEAFFE950EA26040EE902F3CFE9FFC4
:10119000F450EA26000EE926070EEA22050EE9269B
:1011A000000EEA22E9CF10F0EACF11F010C0E6FFFE
:1011B00011C0E6FFE4D8E552E552E552E76E010EB4
:1011C000E7CFDBFFDB50DF5C58E1FC0EDB50E96E64
:1011D000EA6A040EEA02F3CFEAFFE950EA26040EB7
:1011E000E902F3CFE9FFF450EA26000EE926070EE4
:1011F000EA22F50EE926000EEA22EF06FC0EDB508D
:10120000E96EEA6A040EEA02F3CFEAFFE950EA2641
:10121000040EE902F3CFE9FFF450EA26000EE926B6
:10122000070EEA22050EE926000EEA22E9CF10F0A9
:10123000EACF11F0FC0EDB50E96EEA6A040EEA0216
:10124000F3CFEAFFE950EA26040EE902F3CFE9FF03
:10125000F450EA26000EE926070EEA22F50EE926EA
:10126000000EEA22EF500F011024E96E000E11204B
:10127000EA6EEF6A010E0BD00AD0FD0EDBCFE9FF5C
:10128000FE0EDBCFEAFFF10EEF6E020E00D0106E05
:10129000020EE15C02E2E16AE552E16E1050E552B5
:1012A000E7CFD9FF1200D9CFE6FFE1CFD9FF020E79
:1012B000E126DF6A010EDB6AF6C7E6FF7D0EE66E09
:1012C000070EE66E5CD8E552E552E552DF6E03C7C5
:1012D000E6FF24EC0DF0E552010EDB6A0701F65142
:1012E000F36E010EDBCFF4FFF350F45C0FE2010E5E
:1012F000DB50EA6A7D0FE96E070EEA22EF50E66ED8
:1013000024EC0DF0E552010EDB2AE8D7DFCFE6FF33
:1013100024EC0DF0E55204C7E6FF24EC0DF0E55295
:10132000020EE15C02E2E16AE552E16EE552E7CFCE
:10133000D9FF1200D9CFE6FFE1CFD9FFFD0EDBCFF9
:10134000F6FFFE0EDBCFF7FF0800F55012E0FD0EB2
:10135000DBCFF6FFFE0EDBCFF7FF0800F550E66EA1
:1013600024EC0DF0E552FD0EDB2AFE0E01E3DB2A34
:10137000E5D75CEC0DF0E552E7CFD9FF1200D9CFED
:10138000E6FFE1CFD9FF030EE126DF6A010EDB6A3B
:10139000FC0EDB50F36E010EDBCFF4FFF350F45C78
:1013A00012E2010EDB50E76EFD0EDBCFE9FFFE0E11
:1013B000DBCFEAFFE750E926000EEA22EF50DF1A02
:1013C000010EDB2AE5D7DF50106E030EE15C03E26D
:1013D00000D0E16AE552E16E1050E552E7CFD9FF47
:1013E0001200D9CFE6FFE1CFD9FF1C0EE126DF6A5C
:1013F000D950010FE96EDACFEAFFEE6AEE6AEE6AC3
:10140000EE6AEE6AEE6AEE6AEE6AEE6AEE6AEE6A1C
:10141000EE6AEE6AEE6AEE6AEE6AEE6AEE6AEE6A0C
:10142000EE6AEE6AEE6AEE6AEE6A190EDB6AD9CFF0
:1014300010F0DACF11F0DBCFF3FFDB2AF3500F010E
:101440001024E96E000E1120EA6EAA0EEF6EFE0E59
:10145000DB50020FE66ED9CF10F0DACF11F0190E83
:10146000DBCFF3FFDB2AF3501024E96E000E1120CE
:10147000EA6EE552E750EF6ED9CF10F0DACF11F0F7
:10148000190EDBCFF3FFDB2AF3501024E96E000EB8
:101490001120EA6EFA0EDBCFEFFFD9CF10F0DACFD2
:1014A00011F0190EDBCFF3FFDB2AF3501024E96EA5
:1014B000000E1120EA6EFD0EDBCFEFFF1A0EDB6A85
:1014C000FA0EDB50F36E1A0EDBCFF4FFF350F45C30
:1014D00025E21A0EDB50E76EFB0EDBCFE9FFFC0EB8
:1014E000DBCFEAFFE750E926000EEA22EF50E66E76
:1014F000D9CF10F0DACF11F01A0EDBCFE6FF190EBC
:10150000DB50E552E7241024E96E000E1120EA6E4C
:10151000E552E750EF6E1A0EDB2AD2D7190EDBCF59
:10152000E7FF1A0EDB50E726190EE7CFDBFFDB04DF
:10153000E66ED950010FE66E000EDA20E66E1FDF70
:10154000E552E552E552E76E1B0EE7CFDBFFDB50BD
:10155000AA0804E01B0EDB50BB0814E1020EDB2AD4
:10156000190EDB04E66ED950010FE66E000EDA208C
:10157000E66E05DFE552E552E552E76E1B0EE7CF5A
:10158000DBFFE5D7D9CF10F0DACF11F0190EDBCFA2
:10159000F3FFDB2AF3500F011024E96E000E112037
:1015A000EA6E1B0EDBCFEFFFD9CF10F0DACF11F0D0
:1015B000190EDBCFF3FFDB2AF3501024E96E000E87
:1015C0001120EA6EBB0EEF6E1A0EDB6A190EDB50AD
:1015D000F36E1A0EDBCFF4FFF350F45C14E2D9CFB4
:1015E00010F0DACF11F01A0EDB500F011024E96E63
:1015F000000E1120EA6EEF50E66E24EC0DF0E5527D
:101600001A0EDB2AE3D75CEC0DF01C0EE15C02E263
:0E161000E16AE552E16EE552E7CFD9FF120024
:02161E00DACF21
:10162000E4FFE2CFDAFFE9CFE4FFEACFE4FFF6CF51
:10163000E4FFF7CFE4FFF5CFE4FFF3CFE4FFF4CF0F
:10164000E4FFFACFE4FF00EE00F0100EE80403E33D
:10165000EECFE4FFFBD700EE10F0090EE80403E341
:10166000EECFE4FFFBD7E652D9CFE6FFE1CFD9FFBB
:10167000E65262EC13F0DF6E0D017B517B2BEA6AC0
:101680007E0FE96E0D0EEA22DFCFEFFF780E7B5D55
:1016900001E37B6B7D2B9E9AE552E552E7CFD9FFA4
:1016A000E55200EE18F0090EE80403E3E5CFEDFF84
:1016B000FBD700EE0FF0100EE80403E3E5CFEDFFDB
:1016C000FBD7E5CFFAFFE5CFF4FFE5CFF3FFE5CF9A
:1016D000F5FFE5CFF7FFE5CFF6FFE5CFEAFFE5CF72
:1016E000E9FFE5CFDAFF1100780E0D017B5D01E324
:1016F0007B6B780E715D01E3716B1200DACFE4FF52
:10170000E2CFDAFFE9CFE4FFEACFE4FFF6CFE4FF70
:10171000F7CFE4FFF5CFE4FFF3CFE4FFF4CFE4FF2E
:10172000FACFE4FF00EE00F0100EE80403E3EECF82
:10173000E4FFFBD700EE10F0090EE80403E3EECF60
:10174000E4FFFBD7E652D9CFE6FFE1CFD9FFE6525F
:1017500043EC13F0DF6E0E017151712BEA6A740FC6
:10176000E96E0E0EEA22DFCFEFFF780E715D01E326
:10177000716B732BA49AE552E552E7CFD9FFE5527E
:1017800000EE18F0090EE80403E3E5CFEDFFFBD708
:1017900000EE0FF0100EE80403E3E5CFEDFFFBD7FA
:1017A000E5CFFAFFE5CFF4FFE5CFF3FFE5CFF5FF97
:1017B000E5CFF7FFE5CFF6FFE5CFEAFFE5CFE9FF9D
:1017C000E5CFDAFF1100DACFE4FFE2CFDAFFE9CFAD
:1017D000E4FFEACFE4FFE652D9CFE6FFE1CFD9FF3D
:1017E000E6520D01025105E1ACA2FED78290AC9AFF
:1017F0001BD00151EA6A030FE96E0D0EEA22EFCF0A
:10180000DFFFDF50AD6E012B780E015D01E3016B50
:10181000000EE76E0219E8AE02D0023503D0E750A1
:10182000D880025501E20207E552E552E7CFD9FF21
:10183000E552E5CFEAFFE5CFE9FFE5CFDAFF11009A
:10184000DACFE4FFE2CFDAFFE9CFE4FFEACFE4FF4B
:10185000E652D9CFE6FFE1CFD9FFE6520D01F851AC
:1018600005E172A2FED78292729A1BD0F751EA6A02
:10187000F90FE96E0D0EEA22EFCFDFFFDF50736E36
:10188000F72B780EF75D01E3F76B000EE76EF819A2
:10189000E8AE02D0F83503D0E750D880F85501E221
:1018A000F807E552E552E7CFD9FFE552E5CFEAFF69
:1018B000E5CFE9FFE5CFDAFF1100D9CFE6FFE1CFB1
:1018C000D9FFE6527C0EDF6ED950FB0FE96EFF0E9A
:1018D000DA20EA6EEE2A000EEE22EE22EE22D95037
:1018E000FB0FE96EFF0EDA20EA6E040EE76ED89069
:1018F000EF36010EEB36020EEB36030EEB36E70643
:10190000F6E1106A900E116ED00E126E030E136E79
:1019100010C004F011C005F012C006F013C007F0AB
:10192000FB0EDBCF09F0FC0EDBCF0AF0FD0EDBCFA8
:101930000BF0FE0EDBCF0CF01FEC13F0FB0E04C01F
:10194000DBFFFC0E05C0DBFFFD0E06C0DBFFFE0E5D
:1019500007C0DBFFFB0EDBCFE6FFFC0EDBCFE6FFB5
:10196000DFCFE6FFBCEC12F0E552E552E552AB8E5C
:10197000AC8AAC9E9D8A9F8AE552E552E7CFD9FF9B
:101980001200D9CFE6FFE1CFD9FFE6527C0EDF6E21
:10199000D950FB0FE96EFF0EDA20EA6EEE2A000E38
:1019A000EE22EE22EE22D950FB0FE96EFF0EDA2076
:1019B000EA6E040EE76ED890EF36010EEB36020E9B
:1019C000EB36030EEB36E706F6E1106A900E116E69
:1019D000D00E126E030E136E10C004F011C005F08D
:1019E00012C006F013C007F0FB0EDBCF09F0FC0EAF
:1019F000DBCF0AF0FD0EDBCF0BF0FE0EDBCF0CF0E1
:101A00001FEC13F0FB0E04C0DBFFFC0E05C0DBFF78
:101A1000FD0E06C0DBFFFE0E07C0DBFFFB0EDBCFBB
:101A2000E6FFFC0EDBCFE6FFDFCFE6FF80EC12F037
:101A3000E552E552E552718E728A729EA38AE55292
:101A4000E552E7CFD9FF1200D9CFE6FFE1CFD9FFAA
:101A5000ACA2FED70D010051002BEA6A030FE96E1C
:101A60000D0EEA22FE0EDBCFEFFF022B780E005D9B
:101A700001E3006B010E00D0E552E7CFD9FF120061
:101A8000D9CFE6FFE1CFD9FF72A2FED70D01F65103
:101A9000F62BEA6AF90FE96E0D0EEA22FE0EDBCF95
:101AA000EFFFF82B780EF65D01E3F66B010E00D028
:101AB000E552E7CFD9FF1200D9CFE6FFE1CFD9FF3A
:101AC000060EE1268280010EF36E020EF3CFDBFFDD
:101AD000030EDB6A020EDBCF10F0DB06030EDBCF5A
:101AE00011F001E2DB061050111006E0100EE66E58
:101AF000D5EC13F0E552EED7000E0D01E76E02199A
:101B0000E8AE02D0023503D0E750D880025523E278
:101B10000151EA6A030FE96E0D0EEA22010EEFCFC2
:101B2000DBFFACA2FED7010EDB50AD6EACA2FED740
:101B30000D01012B780E015D01E3016B000EE76ED4
:101B40000219E8AE02D0023503D0E750D880025522
:101B500001E20207D1D78290010EF36E040EF3CF9B
:101B6000DBFF050EDB6A040EDBCF10F0DB06050E93
:101B7000DBCF11F001E2DB061050111006E0100E71
:101B8000E66ED5EC13F0E552EED7106E060EE15C72
:101B900002E2E16AE552E16E1050E552E7CFD9FF6B
:101BA0001200D9CFE6FFE1CFD9FF060EE1268282EF
:101BB000010EF36E020EF3CFDBFF030EDB6A020EA3
:101BC000DBCF10F0DB06030EDBCF11F001E2DB060A
:101BD0001050111006E0100EE66ED5EC13F0E55231
:101BE000EED7000E0D01E76EF819E8AE02D0F83519
:101BF00003D0E750D880F85523E2F751EA6AF90F8D
:101C0000E96E0D0EEA22010EEFCFDBFF72A2FED7C6
:101C1000010EDB50736E72A2FED70D01F72B780E0A
:101C2000F75D01E3F76B000EE76EF819E8AE02D03E
:101C3000F83503D0E750D880F85501E2F807D1D73E
:101C40008292010EF36E040EF3CFDBFF050EDB6A0A
:101C5000040EDBCF10F0DB06050EDBCF11F001E246
:101C6000DB061050111006E0100EE66ED5EC13F0F6
:101C7000E552EED7106E060EE15C02E2E16AE55233
:101C8000E16E1050E552E7CFD9FF1200D9CFE6FF41
:101C9000E1CFD9FFE652DF6AA39A000E0E01E76E8C
:101CA0007319E8AE02D0733503D0E750D88073556E
:101CB00002E2010EDF6EA38ADF5000D0E552E5524A
:101CC000E7CFD9FF1200D9CFE6FFE1CFD9FFE65227
:101CD000DF6A9D9A000E0D01E76E7D19E8AE02D015
:101CE0007D3503D0E750D8807D5502E2010EDF6ECE
:101CF0009D8ADF5000D0E552E552E7CFD9FF1200B0
:101D0000D9CFE6FFE1CFD9FFE6529D9A0D017C5174
:101D10007C2BEA6A7E0FE96E0D0EEA22EFCFDFFF21
:101D2000780E7C5D01E37C6B000EE76E7D19E8AEFA
:101D300002D07D3503D0E750D8807D5501E27D0784
:101D40009D8ADF5000D0E552E552E7CFD9FF12005F
:101D5000D9CFE6FFE1CFD9FFE652A39A0E01725127
:101D6000722BEA6A740FE96E0E0EEA22EFCFDFFFE4
:101D7000780E725D01E3726B000EE76E7319E8AEC8
:101D800002D0733503D0E750D880735501E2730752
:101D90009D8ADF5000D0E552E552E7CFD9FF12000F
:101DA000DACFE4FFE2CFDAFFE9CFE4FFEACFE4FFE6
:101DB000F6CFE4FFF7CFE4FFF5CFE4FFF3CFE4FF86
:101DC000F4CFE4FFFACFE4FF00EE00F0100EE804D9
:101DD00003E3EECFE4FFFBD700EE10F0090EE804BA
:101DE00003E3EECFE4FFFBD7E652F2940F010C2B96
:101DF000000E0D230E230F23102B1123122B132360
:101E00001407155B153504E214510008000E155532
:101E100008E3162B000E172318231923C80E146F7E
:101E2000156B0251031107E005D003CFFAFF0F0134
:101E30000251F96EFADF00CFE6FF01CFE6FF9DEC1D
:101E400013F0E552E552E55200EE18F0090EE804F1
:101E500003E3E5CFEDFFFBD700EE0FF0100EE80433
:101E600003E3E5CFEDFFFBD7E5CFFAFFE5CFF4FFC6
:101E7000E5CFF3FFE5CFF5FFE5CFF7FFE5CFF6FFC1
:101E8000E5CFEAFFE5CFE9FFE5CFDAFF1100DACFD2
:101E9000E4FFE2CFDAFFE9CFE4FFEACFE4FFF6CFD9
:101EA000E4FFF7CFE4FFF5CFE4FFF3CFE4FFF4CF97
:101EB000E4FFFACFE4FF00EE00F0100EE80403E3C5
:101EC000EECFE4FFFBD700EE10F0090EE80403E3C9
:101ED000EECFE4FFFBD7E6529E9004CFE6FF05CF9E
:101EE000E6FF81EC13F0E552E5520F0106510711B0
:101EF00007E005D007CFFAFF0F010651F96EFADFB0
:101F0000E55200EE18F0090EE80403E3E5CFEDFF1B
:101F1000FBD700EE0FF0100EE80403E3E5CFEDFF72
:101F2000FBD7E5CFFAFFE5CFF4FFE5CFF3FFE5CF31
:101F3000F5FFE5CFF7FFE5CFF6FFE5CFEAFFE5CF09
:101F4000E9FFE5CFDAFF1100DACFE4FFE2CFDAFFF5
:101F5000E9CFE4FFEACFE4FFF6CFE4FFF7CFE4FFF9
:101F6000F5CFE4FFF3CFE4FFF4CFE4FFFACFE4FFD3
:101F700000EE00F0100EE80403E3EECFE4FFFBD721
:101F800000EE10F0090EE80403E3EECFE4FFFBD708
:101F9000E6529E9208CFBBFF0F010A510B1107E0DA
:101FA00005D00BCFFAFF0F010A51F96EFADFE552A7
:101FB00000EE18F0090EE80403E3E5CFEDFFFBD7D0
:101FC00000EE0FF0100EE80403E3E5CFEDFFFBD7C2
:101FD000E5CFFAFFE5CFF4FFE5CFF3FFE5CFF5FF5F
:101FE000E5CFF7FFE5CFF6FFE5CFEAFFE5CFE9FF65
:101FF000E5CFDAFF1100D9CFE6FFE1CFD9FF9F0E81
:10200000E66EB9EC13F0E552FD0EDBCF00FFFE0EDD
:10201000DBCF01FFFB0EDBCF02FFFC0EDBCF03FFAC
:10202000FD0EDBCFE6FFFE0EDBCFE6FF9DEC13F0EF
:10203000E552E552E552E7CFD9FF1200D9CFE6FFCE
:10204000E1CFD9FF020EE126830EDF6EDE52080ECD
:10205000DD6E010EDBCFE6FFDFCFE6FFF5EC12F021
:10206000E552E552FD0EDBCFE6FFFE0EDBCFE6FFCD
:1020700081EC13F0E552E5529F809D80010ECD6EFC
:10208000FD0EDBCF04FFFE0EDBCF05FFFB0EDBCF2B
:1020900006FFFC0EDBCF07FF020EE15C02E2E16A05
:1020A000E552E16EE552E7CFD9FF1200D9CFE6FF46
:1020B000E1CFD9FF0F0EBA6E9F829D82FE0EDB50DC
:1020C000BB6EFE0EDB500F01086F096BFC0EDBCF01
:1020D0000AFFFD0EDBCF0BFFE552E7CFD9FF120061
:1020E000D9CFE6FFE1CFD9FF040EE126F29A16CF51
:1020F000DFFF010E17CFDBFF020E18CFDBFF030E51
:1021000019CFDBFFF28ADECF04F0DECF05F0DECFA1
:1021100006F0DDCF07F0DD52DD52040EE15C03E294
:1021200000D0E16AE552E16EE552E7CFD9FF120037
:10213000F29E0F01166B176B186B196BF28E120063
:10214000D9CFE6FFE1CFD9FF080EE126DE6A900E77
:10215000DE6ED00EDE6E030EDD6EDD52DD52DECFA2
:1021600005F0DECF06F0DECF07F0DDCF08F0DD5260
:10217000DD52055007E1240E061804E1F40E07189D
:1021800001E108501FE0055008E1480E061805E17E
:10219000E80E071802E1010E081810E0055008E1EA
:1021A000900E061805E1D00E071802E1030E08187C
:1021B00001E000D0700ED36E9B8C08D0600ED36E01
:1021C0009B8C04D0700ED36E9B9C00D0D9CFE9FFBE
:1021D000DACFEAFFEECF10F0EECF11F0EECF12F033
:1021E000EFCF13F0020ED8901332123211321032A8
:1021F000E806F9E1040E10C0DBFF050E11C0DBFF9D
:10220000060E12C0DBFF070E13C0DBFFD950040F10
:10221000E96EDACFEAFFE80E096E030E0A6E0B6A6A
:102220000C6AEECF04F0EECF05F0EECF06F0EFCF64
:1022300007F01FEC13F007C0EDFF06C0EDFF05C06F
:10224000EDFF04C0EFFF13681468156A040EDBCFBE
:1022500016F0050EDBCF17F0186A1650135C106EDF
:1022600017501458116E18501558126E10C0F8FE01
:1022700011C0F9FEC26A0F01386B396B3A6B3B6BC8
:102280003C6B96909490829094928292959C958EBD
:10229000949C948EF19E080EE15C02E2E16AE552A4
:0A22A000E16EE552E7CFD9FF12000E
:0622AA00120001010A050B
:1022B00001E10A6B0B0501E10B6B1200D9CFE6FFC0
:1022C000E1CFD9FF020EE126010EDB6ADF6A060EBE
:1022D000DF5C19E2DF50E76EFD0EDBCFE9FFFE0E9B
:1022E000DBCFEAFFE750E926000EEA22EF50E66E68
:1022F000DF50EA6A000FE96E010EEA22E552E7506C
:10230000EF6EDF2AE4D7DF50EA6A000FE96E010EB4
:10231000EA22EF6A0101010E0A6FDB50106E020E15
:10232000E15C03E200D0E16AE552E16E1050E55253
:10233000E7CFD9FF1200D9CFE6FFE1CFD9FF020ED8
:10234000E126010EDB6ADF6A060EDF5C19E2DF5070
:10235000E76EFD0EDBCFE9FFFE0EDBCFEAFFE750B5
:10236000E926000EEA22EF50E66EDF50EA6A000F1F
:10237000E96E010EEA22E552E750EF6EDF2AE4D75C
:10238000DF50EA6A000FE96E010EEA22EF6A0101EE
:10239000010E0B6FDB50106E020EE15C03E200D009
:1023A000E16AE552E16E1050E552E7CFD9FF120025
:1023B000D9CFE6FFE1CFD9FF040EE126A0EC10F063
:1023C000000EE66EE66AF8CEE6FFF9CEE6FFFBEC1D
:1023D0000FF0E552E552E552E552DD0EE66ECC0E09
:1023E000E66EBB0EE66EAA0EE66E3BEC00F0E55222
:1023F000E552E552E552BC0EE66E220EE66EE66A46
:10240000C8EC00F0E552E552E5520DEC00F0F40E98
:10241000DE6E010EDE6EDE6ADD6ADD52DD52D9CF80
:10242000E9FFDACFEAFFEE500F010C5DEE500D59D7
:10243000EE500E59EE500F5907E306EC14F00F0161
:102440000C6B0D6B0E6B0F6BDFEC02F0E8D7040E1C
:10245000E15C02E2E16AE552E16EE552E7CFD9FFC5
:02246000120068
:0E246200200EF66E000EF76E000EF86E0E01E4
:102470000900F550F16F0900F550F26F03E1F167C3
:1024800001D03DD00900F550EC6F0900F550ED6F1B
:102490000900F550EE6F09000900F550E96E0900DA
:1024A000F550EA6E090009000900F550EF6F0900C8
:1024B000F550F06F09000900F6CFF3FEF7CFF4FEF8
:1024C000F8CFF5FEECCEF6FFEDCEF7FFEECEF8FF3F
:1024D0000E01EF5302E1F05307E00900F550EE6EF4
:1024E000EF07F8E2F007F9D7F3CEF6FFF4CEF7FFE7
:1024F000F5CEF8FF0E01F107000EF25BBFD7120018
:10250000D9CFE6FFDACFE6FFE1CFD9FFE2CFDAFF9E
:10251000726A716AFD0EDBB07288DBA202D0728C27
:10252000718CDBB4728EDBA602D0718801D0718A07
:10253000DBA802D0728401D07294DBBA7186DBAC66
:1025400002D0A38A01D0A39ADBAE02D0A38801D027
:10255000A398FB0EDB50756EFC0EDBCF11F011C0A3
:1025600010F0116A1050766E728A718EE552E5CFC6
:08257000DAFFE7CFD9FF1200EA
:08257800D9CFE6FFDACFE6FF40
:10258000E1CFD9FFE2CFDAFFAC6AAB6AFD0EDBB078
:10259000AC88DBA202D0AC8CAB8CDBB4AC8EDBA6FF
:1025A00002D0AB8801D0AB8ADBB8AC84DBBAAB8697
:1025B000DBAC02D09D8A01D09D9ADBAE02D09D8813
:1025C00001D09D98FB0EDB50AF6EFC0EDBCF11F0FF
:1025D00011C010F0116A1050B06EAC8AAB8EE5528B
:0A25E000E5CFDAFFE7CFD9FF1200C4
:0625EA00D9CFE6FFDACFB5
:1025F000E6FFE1CFD9FFE2CFDAFFFC0EDB50F30BB1
:10260000CC6EFD0EDB507F0BE824CD6ECF6ACE6A18
:102610009E90FD0EDBAE02D09D8001D09D90A490D7
:10262000FC0EDBA402D0A38001D0A390CCBECC864C
:0E263000CD80E552E5CFDAFFE7CFD9FF1200EB
:02263E00036A2D
:10264000026A016A006A200EE76ED89004360536E9
:102650000636073600360136023603360950005C6E
:102660000A5001580B5002580C50035809E3095006
:10267000005E0A50015A0B50025A0C50035A042AA9
:06268000E72EE4D7120072
:0A268600D9CFE6FFDACFE6FFE1CF7F
:10269000D9FFE2CFDAFFE652F20E0E01FA1771AC63
:1026A00003D0FA9171B0FA8171B4FA8571B2FA87E8
:1026B0007450DF6EDF50E552E552E5CFDAFFE7CF29
:0426C000D9FF12002C
:0C26C400D9CFE6FFDACFE6FFE1CFD9FF67
:1026D000E2CFDAFFE652F20E0E01FB17ABAC03D0ED
:1026E000FB91ABB0FB81ABB4FB85ABB2FB87AE50CB
:1026F000DF6EDF50E552E552E5CFDAFFE7CFD9FFD5
:022700001200C5
:0E270200D9CFE6FFDACFE6FFE1CFD9FFE2CF75
:10271000DAFFE652E652FC0EDBCFDEFFDBCFDDFF59
:10272000010EDB50CF6EDF50CE6EE552E552E55222
:0A273000E5CFDAFFE7CFD9FF120072
:06273A00D9CFE6FFDACF63
:10274000E6FFE1CFD9FFE2CFDAFFE652E652FC0E18
:10275000DBCFDEFFDBCFDDFF010EDB50D76EDF50BE
:10276000D66EE552E552E552E5CFDAFFE7CFD9FF65
:02277000120055
:0E277200D9CFE6FFDACFE6FFE1CFD9FFE2CF05
:10278000DAFFFD0EDB507F0BD56ED76AD66AF29466
:10279000FD0EDBAE02D0F28A01D0F29AD58EE55260
:0A27A000E5CFDAFFE7CFD9FF120002
:0627AA00FF0EE350196E62
:1027B000480E01D04C0EE76EE72EFED7E76AE72EF3
:0A27C000FED7192EF7D70000120013
:0627CA00380EF36E00EE74
:1027D00000F00F0E01D81200EA6002D0EE6AFCD7BA
:0A27E000F350E9601200EE6AFCD726
:0627EA0010EE60F020EE8D
:1027F00060F0F86A0F9C31EC12F003EC00F0D8ECBA
:0628000011F0FBD71200ED
:0A2806000E01FD6B12000E01FD052E
:1028100003E1FD6B849003D0010EFD6F84801200F4
:10282000FF0EE350E84E1200000000D000D000D0B0
:06283000E82EFAD71200A9
:05283600434F4D0A00B4
:05283B00000000000098
:102840000000000000000000000000000000000088
:102850000000000000000000000000000000000078
:102860000000000000000000000000000000000068
:102870000000000000000000000000000000000058
:102880000000000000000000000000000000000048
:102890000000000000000000000000000000000038
:1028A0000000000000000000000000000000000028
:1028B0000000000000000000000000000000000018
:1028C0000000000000000000000000000000000008
:1028D00000000000000000000000000000000000F8
:1028E00000000000000000000000000000000000E8
:1028F00000000000000000000000000000000000D8
:1029000000000000000000000000000000000000C7
:1029100000000000000000000000000000000000B7
:1029200000000000000000000000000000000000A7
:102930000000000000000000000000000000000097
:102940000000000000000000000000000000000087
:102950000000000000000000000000000000000077
:102960000000000000000000000000000000000067
:102970000000000000000000000000000000000057
:102980000000000000000000000000000000000047
:102990000000000000000000000000000000000037
:1029A0000000000000000000000000000000000027
:1029B0000000000000000000000000000000000017
:1029C0000000000000000000000000000000000007
:1029D00000000000000000000000000000000000F7
:1029E00000000000000000000000000000000000E7
:1029F00000000000000000000000000000000000D7
:102A000000000000000000000000000000000000C6
:102A100000000000000000000000000000000000B6
:072A200000000000000000AF
:092A2700000000000000000000A6
:102A30000000000000000000000000000000000096
:102A40000000000000000000000000000000000086
:102A50000000000000000000000000000000000076
:102A60000000000000000000000000000000000066
:102A70000000000000000000000000000000000056
:102A80000000000000000000000000000000000046
:102A90000000000000000000000000000000000036
:102AA0000000000000000000000000000000000026
:102AB0000000000000000000000000000000000016
:102AC0000000000000000000000000000000000006
:102AD00000000000000000000000000000000000F6
:102AE00000000000000000000000000000000000E6
:102AF00000000000000000000000000000000000D6
:102B000000000000000000000000000000000000C5
:102B100000000000000000000000000000000000B5
:0B2B20000000000000000000000000AA
:052B2B000000000000A5
:072B3000000000000000009E
:092B370000000000000000000095
:102B40000000000000000000000000C800000000BD
:012B50000084
:012B51000083
:022B5200FFFF83
:022B540000007F
:020000040030CA
:0100010008F6
:0100020001FC
:0100030024D8
:01000500BD3D
:010006008079
:010008000FE8
:01000900C036
:01000A000FE6
:01000B00E014
:01000C000FE4
:01000D0040B2
:00000001FF
