:020000040000FA
:06000000D9EF12F012001E
:020006001200E6
:08000800F2A402D077EF0CF026
:100010009EAA02D087EF08F0A4AA02D0FCEF08F055
:080020001200D08EF28E1200D6
:0800280007000B280000280F5F
:1000300000000200000009280000260F0000020056
:100040000000082800002D0F000001000000EC2730
:100050000000000F00001C000000712700000001DC
:1000600000007B000000E5260000000700008C0077
:0E0070000000E9250000000D0000FC0000006B
:02007E00D9CFD8
:10008000E6FFE1CFD9FF020EE126DE6ADD6ADECFB0
:1000900010F0DDCF11F0D890115004E6020E105C84
:1000A000000E115866E2DECFE9FFDDCFEAFF460E13
:1000B000EA02F3CFEAFF460EE902F3CFE9FFF4507C
:1000C000EA26000EE926070EEA22EE52FE0EDBCFEC
:1000D000EFFFDECFE9FFDDCFEAFF460EEA02F3CF06
:1000E000EAFF460EE902F3CFE9FFF450EA26000EDC
:1000F000E926070EEA22020EE926000EEA22FD0E8C
:10010000DBCFEFFFDECFE9FFDDCFEAFF460EEA02ED
:10011000F3CFEAFF460EE902F3CFE9FFF450EA26F7
:10012000000EE926070EEA22030EE926000EEA2257
:10013000FC0EDBCFEFFFDECFE9FFDDCFEAFF460E9F
:10014000EA02F3CFEAFF460EE902F3CFE9FFF450EB
:10015000EA26000EE926070EEA22040EE926000E22
:10016000EA22FB0EDBCFEFFFDF2A010E01E3DB2AE1
:100170008ED727D8020EE15C02E2E16AE552E16E19
:10018000E552E7CFD9FF1200D9CFE6FFE1CFD9FF83
:10019000FE0EDB50460DF3CFE9FFF4CFEAFF000E71
:1001A000E926070EEA223B0EE926000EEA22FC0EA3
:1001B000DBCFEEFFFD0EDBCFEDFFE552E7CFD9FF42
:1001C0001200D9CFE6FFE1CFD9FFE652800EE66EEE
:1001D000250EE66EE66AE66AEAEC09F0E552E552BB
:1001E000E552E552800EE66E250EE66EE66AE66A98
:1001F0004FEC0AF0E552E552E552E552DF6A020E95
:10020000DF5C01E393D0DF50460DF3CFE9FFF4CF7D
:10021000EAFF000EE926070EEA22370EE926000E55
:10022000EA22EF6ADF50460DF3CFE9FFF4CFEAFF91
:10023000000EE926070EEA22380EE926000EEA2211
:10024000EF6ADF50460DF3CFE9FFF4CFEAFF000E6F
:10025000E926070EEA22010EEF6EDF50460DF3CFBE
:10026000E9FFF4CFEAFF000EE926070EEA22390E75
:10027000E926000EEA22EF6ADF50460DF3CFE9FFD0
:10028000F4CFEAFF000EE926070EEA223A0EE9262D
:10029000000EEA22EF68DF50460DF3CFE9FFF4CFFE
:1002A000EAFF000EE926070EEA22410EE926000EBB
:1002B000EA22EECF10F0EECF11F0EECF12F0EFCF3A
:1002C00013F0DF50460DF3CFE9FFF4CFEAFF000E45
:1002D000E926070EEA223D0EE926000EEA2210C0AA
:1002E000EEFF11C0EEFF12C0EEFF13C0EEFFDF50B5
:1002F000460DF3CFE9FFF4CFEAFF000EE926070E23
:10030000EA22EF50E66EDF50460DF3CFE9FFF4CF5F
:10031000EAFF000EE926070EEA22450EE926000E46
:10032000EA22E552E750EF6EDF2A69D7E552E5523F
:10033000E7CFD9FF12000701376B0701386B0701C0
:10034000010E006F0701396B07013A6941C73DF79C
:1003500042C73EF743C73FF744C740F700C745F7DA
:10036000120007017D6B07017E6B0701010E466FCE
:1003700007017F6B0701806987C783F788C784F708
:1003800089C785F78AC786F746C78BF71200D9CF8A
:10039000E6FFE1CFD9FF070EE126020EDB6AABA232
:1003A00007D0AB98040EE66EE7EC12F0E552AB888E
:1003B00071A207D07198040EE66EE7EC12F0E552D8
:1003C0007188010EDB6A020EF36E010EDBCFF4FFC3
:1003D000F350F45C01E3EDD325EC0EF004C010F013
:1003E00005C011F006C012F007C013F0010EDB507B
:1003F000460DF3CFE9FFF4CFEAFF000EE926070E22
:10040000EA22410EE926000EEA2210C0EEFF11C0DA
:10041000EEFF12C0EEFF13C0EEFF010EDB50460DE3
:10042000F3CFE9FFF4CFEAFF000EE926070EEA2238
:100430003D0EE926000EEA22EECF10F0EECF11F0CD
:10044000EECF12F0EFCF13F0010EDB50460DF3CFDD
:10045000E9FFF4CFEAFF000EE926070EEA22410E7B
:10046000E926000EEA221050EE1809E11150EE18AC
:1004700006E11250EE1803E11350EE1800E101E11D
:100480007ED0010EDB50460DF3CFE9FFF4CFEAFF3B
:10049000000EE926070EEA22450EE926000EEA22A2
:1004A000EFCF10F0010EDB50460DF3CFE9FFF4CF94
:1004B000EAFF000EE926070EEA22EF50105C31E158
:1004C000010EDB50460DF3CFE9FFF4CFEAFF000E3B
:1004D000E926070EEA22EF50020823E1010EDB5065
:1004E000460DF3CFE9FFF4CFEAFF000EE926070E31
:1004F000EA223A0EE926000EEA22EF06010EDB5050
:10050000460DF3CFE9FFF4CFEAFF000EE926070E10
:10051000EA223A0EE926000EEA22EF5002E151DE0D
:1005200048D3010EDB50460DF3CFE9FFF4CFEAFFCD
:10053000000EE926070EEA22410EE926000EEA2205
:10054000EECF10F0EECF11F0EECF12F0EFCF13F0B0
:10055000010EDB50460DF3CFE9FFF4CFEAFF000EAA
:10056000E926070EEA223D0EE926000EEA2210C017
:10057000EEFF11C0EEFF12C0EEFF13C0EEFF010E42
:10058000DB50460DF3CFE9FFF4CFEAFF000EE9267A
:10059000070EEA22EF50030A01E1D1D2010A50E02E
:1005A000030A01E0D8D2010EDB500CE102EC0CF0A2
:1005B000000901E1DCD21FEC0CF0E76E020EE7CF80
:1005C000DBFF0ED0010EDB040BE1E5EC0BF00009C4
:1005D00001E1CDD24BEC0CF0E76E020EE7CFDBFF72
:1005E000010EDB50460DF3CFE9FFF4CFEAFF000E1A
:1005F000E926070EEA22EE52EF50F36E020EDB50B0
:10060000F35C1DE1010EDB50460DF3CFE9FFF4CFA3
:10061000EAFF000EE926070EEA22370EE926000E51
:10062000EA22EF6A010EDB50460DF3CFE9FFF4CF6B
:10063000EAFF000EE926070EEA22020EEF6E97D2BD
:10064000010EDB500CE102EC0CF0000901E18FD24D
:100650001FEC0CF0E76E020EE7CFDBFF0ED0010EB1
:10066000DB040BE1E5EC0BF0000901E180D24BEC7F
:100670000CF0E76E020EE7CFDBFF010EDB50460DFC
:10068000F3CFE9FFF4CFEAFF000EE926070EEA22D6
:10069000050EE926000EEA22E9CF10F0EACF11F0AC
:1006A000010EDB50460DF3CFE9FFF4CFEAFF000E59
:1006B000E926070EEA22370EE926000EEA22EF505D
:1006C000EF2A0F011024E96E000E1120EA6E020ECF
:1006D000DBCFEFFF010EDB50460DF3CFE9FFF4CF88
:1006E000EAFF000EE926070EEA223A0EE926000E7E
:1006F000EA22EF6A010EDB50460DF3CFE9FFF4CF9B
:10070000EAFF000EE926070EEA22370EE926000E60
:10071000EA22EFCF10F03C0E105C53E3010EDB50E9
:10072000460DF3CFE9FFF4CFEAFF000EE926070EEE
:10073000EA221E0EE926000EEA22FA0EEF6E010EE4
:10074000DB50460DF3CFE9FFF4CFEAFF000EE926B8
:10075000070EEA22380EE926000EEA22EF2A010EE1
:10076000DB50460DF3CFE9FFF4CFEAFF000EE92698
:10077000070EEA221E0EE926000EEA22010EE926E5
:10078000000EEA22F00EEF6E010EDB50460DF3CFA5
:10079000E9FFF4CFEAFF000EE926070EEA22380E41
:1007A000E926000EEA22EF2A010EDB50460DF3CFB8
:1007B000E9FFF4CFEAFF000EE926070EEA22030E56
:1007C000EF6E010EDB50460DF3CFE9FFF4CFEAFFE9
:1007D000000EE926070EEA22370EE926000EEA226D
:1007E000EFCF10F0060E105C01E2A8D1050EDB6A17
:1007F000060EDB68010EDB50460DF3CFE9FFF4CFA8
:10080000EAFF000EE926070EEA22050EE926000E91
:10081000EA22E9CF10F0EACF11F0010EDB50460DCD
:10082000F3CFE9FFF4CFEAFF000EE926070EEA2234
:10083000370EE926000EEA22EF50EF2A0F011024AE
:10084000E96E000E1120EA6EEF6A010EF36E050EDE
:10085000F3CFDBFF050EDB50020A01E119D1030AD9
:1008600005E0010A01E05CD166DD5BD1010EDB50E1
:10087000460DF3CFE9FFF4CFEAFF000EE926070E9D
:10088000EA223B0EE926000EEA22EE50ED1001E1CD
:10089000FDD0010EDB50460DF3CFE9FFF4CFEAFFA8
:1008A000000EE926070EEA223B0EE926000EEA2298
:1008B000EECF10F0EFCF11F0D950030FE66E000E1F
:1008C000DA20E66E010EDB50460DF3CFE9FFF4CFE0
:1008D000EAFF000EE926070EEA22390EE926000E8D
:1008E000EA22E9CF12F0EACF13F012C0E6FF13C0FC
:1008F000E6FF010EDB50460DF3CFE9FFF4CFEAFF30
:10090000000EE926070EEA22050EE926000EEA226D
:10091000E9CF14F0EACF15F014C0E6FF15C0E6FFEA
:1009200004D011C0FAFF1050F96EFBDF166E060EF0
:10093000E15E1650E66E010EDB50460DF3CFE9FF87
:10094000F4CFEAFF000EE926070EEA22380EE92668
:10095000000EEA22E552E750EF6E010EDB50460D25
:10096000F3CFE9FFF4CFEAFF000EE926070EEA22F3
:100970001E0EE926000EEA22FA0EEF6E010EDB5083
:10098000460DF3CFE9FFF4CFEAFF000EE926070E8C
:10099000EA22380EE926000EEA22EF2A010EDB5089
:1009A000460DF3CFE9FFF4CFEAFF000EE926070E6C
:1009B000EA22390EE926000EEA22EF50E66E010E19
:1009C000DB50460DF3CFE9FFF4CFEAFF000EE92636
:1009D000070EEA221E0EE926000EEA22010EE92683
:1009E000000EEA22E552E750EF6E010EDB50460D95
:1009F000F3CFE9FFF4CFEAFF000EE926070EEA2263
:100A0000380EE926000EEA22EF2A020EDF6E010EF2
:100A1000DB50460DF3CFE9FFF4CFEAFF000EE926E5
:100A2000070EEA22380EE926000EEA22EF50DF5CBC
:100A30002CE2030EDBCFE9FF040EDBCFEAFFEF5021
:100A4000E66E010EDB50460DF3CFE9FFF4CFEAFF6F
:100A5000000EE926070EEA221E0EE926000EEA2203
:100A6000E9CF10F0EACF11F0DF500F011024E96E4A
:100A7000000E1120EA6EE552E750EF6E030EDB2AFE
:100A8000040E01E3DB2ADF2AC2D701D054DC49D0AF
:100A9000010EDB50460DF3CFE9FFF4CFEAFF000E65
:100AA000E926070EEA221E0EE926000EEA22FA0EB9
:100AB000EF6E010EDB50460DF3CFE9FFF4CFEAFFF6
:100AC000000EE926070EEA22380EE926000EEA2279
:100AD000EF2A010EDB50460DF3CFE9FFF4CFEAFF1A
:100AE000000EE926070EEA221E0EE926000EEA2273
:100AF000010EE926000EEA22060EDBCFEFFF010E03
:100B0000DB50460DF3CFE9FFF4CFEAFF000EE926F4
:100B1000070EEA22380EE926000EEA22EF2A01D05B
:100B200000D0010EDB50460DF3CFE9FFF4CFEAFF12
:100B3000000EE926070EEA22030EEF6E18D0010E12
:100B4000DB5003E19BEC01F005D0010EDB0402E178
:100B5000B1EC01F00CD0010EDB5003E19BEC01F095
:100B600005D0010EDB0402E1B1EC01F000D0010E72
:100B7000DB50460DF3CFE9FFF4CFEAFF000EE92684
:100B8000070EEA22EF50E66E010EDB50460DF3CF62
:100B9000E9FFF4CFEAFF000EE926070EEA22450E30
:100BA000E926000EEA22E552E750EF6E010EDB2A3D
:100BB0000AD4070EE15C02E2E16AE552E16EE55219
:100BC000E7CFD9FF1200D9CFE6FFE1CFD9FF020E60
:100BD000E126FC0EDB50460DF3CFE9FFF4CFEAFF30
:100BE000000EE926070EEA22050EE926000EEA228B
:100BF000E9CF10F0EACF11F0FC0EDB50460DF3CF39
:100C0000E9FFF4CFEAFF000EE926070EEA22370ECD
:100C1000E926000EEA22EF040F011024E96E000E0F
:100C20001120EA6EEFCFDFFF010EDB6AFC0EDB5016
:100C3000460DF3CFE9FFF4CFEAFF000EE926070ED9
:100C4000EA22050EE926000EEA22EF50FA0814E027
:100C5000FC0EDB50460DF3CFE9FFF4CFEAFF000EA8
:100C6000E926070EEA22050EE926000EEA22EF50D9
:100C7000FF0802E0000E7BD0FC0EDB50460DF3CFE8
:100C8000E9FFF4CFEAFF000EE926070EEA22370E4D
:100C9000E926000EEA22EF04E66EFC0EDB50460D5C
:100CA000F3CFE9FFF4CFEAFF000EE926070EEA22B0
:100CB000050EE926000EEA22E9CF10F0EACF11F086
:100CC00010C0E6FF11C0E6FFCAD8E552E552E55272
:100CD000E76E010EE7CFDBFF010EDB50DF5C3DE18D
:100CE000FC0EDB50460DF3CFE9FFF4CFEAFF000E18
:100CF000E926070EEA22370EE926000EEA22EF0661
:100D0000FC0EDB50460DF3CFE9FFF4CFEAFF000EF7
:100D1000E926070EEA22050EE926000EEA22E9CFAF
:100D200010F0EACF11F0FC0EDB50460DF3CFE9FFD7
:100D3000F4CFEAFF000EE926070EEA22370EE92675
:100D4000000EEA22EF500F011024E96E000E112070
:100D5000EA6EEF6A010E0BD00AD0FD0EDBCFE9FF81
:100D6000FE0EDBCFEAFFF10EEF6E020E00D0106E2A
:100D7000020EE15C02E2E16AE552E16E1050E552DA
:100D8000E7CFD9FF1200D9CFE6FFE1CFD9FF020E9E
:100D9000E126DF6A010EDB6A38C7E6FF1E0EE66E4B
:100DA000070EE66E5CD8E552E552E552DF6E03C7EA
:100DB000E6FFB3EC0AF0E552010EDB6A0701385199
:100DC000F36E010EDBCFF4FFF350F45C0FE2010E83
:100DD000DB50EA6A1E0FE96E070EEA22EF50E66E5C
:100DE000B3EC0AF0E552010EDB2AE8D7DFCFE6FFCD
:100DF000B3EC0AF0E55204C7E6FFB3EC0AF0E552A3
:100E0000020EE15C02E2E16AE552E16EE552E7CFF3
:100E1000D9FF1200D9CFE6FFE1CFD9FFFD0EDBCF1E
:100E2000F6FFFE0EDBCFF7FF0800F55012E0FD0ED7
:100E3000DBCFF6FFFE0EDBCFF7FF0800F550E66EC6
:100E4000B3EC0AF0E552FD0EDB2AFE0E01E3DB2ACD
:100E5000E5D7F1EC0AF0E552E7CFD9FF1200D9CF80
:100E6000E6FFE1CFD9FF030EE126DF6A010EDB6A60
:100E7000FC0EDB50F36E010EDBCFF4FFF350F45C9D
:100E800012E2010EDB50E76EFD0EDBCFE9FFFE0E36
:100E9000DBCFEAFFE750E926000EEA22EF50DF1A27
:100EA000010EDB2AE5D7DF5000D0106E030EE15CA7
:100EB00002E2E16AE552E16E1050E552E7CFD9FF58
:100EC0001200D9CFE6FFE1CFD9FF1C0EE126DF6A81
:100ED000D950010FE96EDACFEAFFEE6AEE6AEE6AE8
:100EE000EE6AEE6AEE6AEE6AEE6AEE6AEE6AEE6A42
:100EF000EE6AEE6AEE6AEE6AEE6AEE6AEE6AEE6A32
:100F0000EE6AEE6AEE6AEE6AEE6A190EDB6AD9CF15
:100F100010F0DACF11F0190EDBCFF3FFDB2AF3501C
:100F20000F011024E96E000E1120EA6E410EEF6EE3
:100F3000FE0EDB50020FE66ED9CF10F0DACF11F0C3
:100F4000190EDBCFF3FFDB2AF3500F011024E96EFB
:100F5000000E1120EA6EE552E750EF6ED9CF10F087
:100F6000DACF11F0190EDBCFF3FFDB2AF3500F01BC
:100F70001024E96E000E1120EA6EFA0EDBCFEFFFAF
:100F8000D9CF10F0DACF11F0190EDBCFF3FFDB2A47
:100F9000F3500F011024E96E000E1120EA6EFD0ED1
:100FA000DBCFEFFF1A0EDB6AFA0EDB50F36E1A0E80
:100FB000DBCFF4FFF350F45C26E21A0EDB50E76E51
:100FC000FB0EDBCFE9FFFC0EDBCFEAFFE750E926A3
:100FD000000EEA22EF50E66ED9CF10F0DACF11F012
:100FE0001A0EDBCFE6FF190EDB50E552E7240F01A6
:100FF0001024E96E000E1120EA6EE552E750EF6E04
:101000001A0EDB2AD1D7190EDBCFE7FF1A0EDB5001
:10101000E726190EE7CFDBFF190EDB04E66ED95089
:10102000010FE66E000EDA20E66E19DFE552E5529A
:10103000E552E76E1B0EE7CFDBFF1B0EDB504108CE
:1010400004E01B0EDB50BB0814E1020EDB2A190E74
:10105000DB04E66ED950010FE66E000EDA20E66E74
:10106000FEDEE552E552E552E76E1B0EE7CFDBFFF1
:10107000E4D7D9CF10F0DACF11F0190EDBCFF3FFA0
:10108000DB2AF3500F011024E96E000E1120EA6EE6
:101090001B0EDBCFEFFFD9CF10F0DACF11F0190E16
:1010A000DBCFF3FFDB2AF3500F011024E96E000EB3
:1010B0001120EA6EBB0EEF6E1A0EDB6A190EDB50C2
:1010C000F36E1A0EDBCFF4FFF350F45C14E2D9CFC9
:1010D00010F0DACF11F01A0EDB500F011024E96E78
:1010E000000E1120EA6EEF50E66EB3EC0AF0E55206
:1010F0001A0EDB2AE3D7F1EC0AF01C0EE15C02E2E7
:0E110000E16AE552E16EE552E7CFD9FF120039
:02110E00DACF36
:10111000E4FFE2CFDAFFE9CFE4FFEACFE4FFF6CF66
:10112000E4FFF7CFE4FFF5CFE4FFF3CFE4FFF4CF24
:10113000E4FFFACFE4FF00EE00F0100EE80403E352
:10114000EECFE4FFFBD700EE10F0090EE80403E356
:10115000EECFE4FFFBD7E652D9CFE6FFE1CFD9FFD0
:10116000E65237EC12F0DF6E0D013F513F2BEA6A79
:10117000420FE96E0D0EEA22DFCFEFFF3C0E0D01AC
:101180003F5D02E30D013F6B0D01412B9E9AE5523D
:10119000E552E7CFD9FFE55200EE18F0090EE8045A
:1011A00003E3E5CFEDFFFBD700EE0FF0100EE804F0
:1011B00003E3E5CFEDFFFBD7E5CFFAFFE5CFF4FF83
:1011C000E5CFF3FFE5CFF5FFE5CFF7FFE5CFF6FF7E
:1011D000E5CFEAFFE5CFE9FFE5CFDAFF11003C0EEE
:1011E0000D013F5D02E30D013F6B3C0E0D01BD5D46
:1011F00002E30D01BD6B1200DACFE4FFE2CFDAFFAC
:10120000E9CFE4FFEACFE4FFF6CFE4FFF7CFE4FF56
:10121000F5CFE4FFF3CFE4FFF4CFE4FFFACFE4FF30
:1012200000EE00F0100EE80403E3EECFE4FFFBD77E
:1012300000EE10F0090EE80403E3EECFE4FFFBD765
:10124000E652D9CFE6FFE1CFD9FFE65218EC12F013
:10125000DF6E0D01BD51BD2BEA6AC00FE96E0D0EA8
:10126000EA22DFCFEFFF3C0E0D01BD5D02E30D0171
:10127000BD6B0D01BF2BA49AE552E552E7CFD9FF14
:10128000E55200EE18F0090EE80403E3E5CFEDFFA8
:10129000FBD700EE0FF0100EE80403E3E5CFEDFFFF
:1012A000FBD7E5CFFAFFE5CFF4FFE5CFF3FFE5CFBE
:1012B000F5FFE5CFF7FFE5CFF6FFE5CFEAFFE5CF96
:1012C000E9FFE5CFDAFF1100DACFE4FFE2CFDAFF82
:1012D000E9CFE4FFEACFE4FFE652D9CFE6FFE1CF62
:1012E000D9FFE6520D01025105E1ACA2FED7829072
:1012F000AC9A21D00D010151EA6A030FE96E0D0E7F
:10130000EA22EFCFDFFFDF50AD6E0D01012B3C0E67
:101310000D01015D02E30D01016B000E0D01E76E91
:101320000219E8AE02D0023503D0E750D88002554A
:1013300002E20D010207E552E552E7CFD9FFE5527F
:10134000E5CFEAFFE5CFE9FFE5CFDAFF1100DACF1D
:10135000E4FFE2CFDAFFE9CFE4FFEACFE4FFE652B1
:10136000D9CFE6FFE1CFD9FFE6520D01805105E16B
:1013700072A2FED78292729A21D00D017F51EA6A41
:10138000810FE96E0D0EEA22EFCFDFFFDF50736EA3
:101390000D017F2B3C0E0D017F5D02E30D017F6B84
:1013A000000E0D01E76E8019E8AE02D0803503D043
:1013B000E750D880805502E20D018007E552E552E2
:1013C000E7CFD9FFE552E5CFEAFFE5CFE9FFE5CF6B
:1013D000DAFF1100D9CFE6FFE1CFD9FFE6527C0E4C
:1013E000DF6ED950FB0FE96EFF0EDA20EA6EEE2AAF
:1013F000000EEE22000EEE22000EEE22D950FB0F60
:10140000E96EFF0EDA20EA6E040EE76ED890EF3632
:10141000010EEB36020EEB36030EEB36E706F6E175
:10142000106A240E116EF40E126E136A10C004F0CE
:1014300011C005F012C006F013C007F0FB0EDBCFA1
:1014400009F0FC0EDBCF0AF0FD0EDBCF0BF0FE0E39
:10145000DBCF0CF0F4EC11F0FB0E04C0DBFFFC0E54
:1014600005C0DBFFFD0E06C0DBFFFE0E07C0DBFF85
:10147000FB0EDBCFE6FFFC0EDBCFE6FFDFCFE6FFA8
:1014800091EC11F0E552E552E552AB8EAC8AAC9E80
:101490009D8A9F8AE552E552E7CFD9FF1200D9CF46
:1014A000E6FFE1CFD9FFE6527C0EDF6ED950FB0F8D
:1014B000E96EFF0EDA20EA6EEE2A000EEE22000E32
:1014C000EE22000EEE22D950FB0FE96EFF0EDA205D
:1014D000EA6E040EE76ED890EF36010EEB36020E80
:1014E000EB36030EEB36E706F6E1106A240E116EBA
:1014F000F40E126E136A10C004F011C005F012C091
:1015000006F013C007F0FB0EDBCF09F0FC0EDBCFBB
:101510000AF0FD0EDBCF0BF0FE0EDBCF0CF0F4EC8F
:1015200011F0FB0E04C0DBFFFC0E05C0DBFFFD0E5F
:1015300006C0DBFFFE0E07C0DBFFFB0EDBCFE6FFC6
:10154000FC0EDBCFE6FFDFCFE6FF55EC11F0E552F6
:10155000E552E552718E728A729EA38AE552E55277
:10156000E7CFD9FF1200D9CFE6FFE1CFD9FFACA278
:10157000FED70D010051002BEA6A030FE96E0D0E34
:10158000EA22FE0EDBCFEFFF0D01022B3C0E0D0118
:10159000005D02E30D01006B010E00D0E552E7CFC4
:1015A000D9FF1200D9CFE6FFE1CFD9FF72A2FED753
:1015B0000D017E517E2BEA6A810FE96E0D0EEA2243
:1015C000FE0EDBCFEFFF0D01802B3C0E0D017E5D8B
:1015D00002E30D017E6B010E00D0E552E7CFD9FF8B
:1015E0001200D9CFE6FFE1CFD9FF060EE1268280B7
:1015F000010EF36E020EF3CFDBFF030EDB6A020E69
:10160000DBCF10F0DB06030EDBCF11F001E2DB06CF
:101610001050111006E0040EE66EAAEC12F0E5522E
:10162000EED7000E0D01E76E0219E8AE02D00235CA
:1016300003D0E750D880025528E20D010151EA6A33
:10164000030FE96E0D0EEA22010EEFCFDBFFACA215
:10165000FED7010EDB50AD6EACA2FED70D01012B03
:101660003C0E0D01015D02E30D01016B000E0D0149
:10167000E76E0219E8AE02D0023503D0E750D880F9
:10168000025502E20D010207CCD78290010EF36EE3
:10169000040EF3CFDBFF050EDB6A040EDBCF10F088
:1016A000DB06050EDBCF11F001E2DB061050111056
:1016B00006E0040EE66EAAEC12F0E552EED7106ECC
:1016C000060EE15C02E2E16AE552E16E1050E5527D
:1016D000E7CFD9FF1200D9CFE6FFE1CFD9FF060E41
:1016E000E1268282010EF36E020EF3CFDBFF030EC2
:1016F000DB6A020EDBCF10F0DB06030EDBCF11F04E
:1017000001E2DB061050111006E0040EE66EAAECB2
:1017100012F0E552EED7000E0D01E76E8019E8AE2B
:1017200002D0803503D0E750D880805528E20D01E3
:101730007F51EA6A810FE96E0D0EEA22010EEFCFAA
:10174000DBFF72A2FED7010EDB50736E72A2FED7D2
:101750000D017F2B3C0E0D017F5D02E30D017F6BC0
:10176000000E0D01E76E8019E8AE02D0803503D07F
:10177000E750D880805502E20D018007CCD78292D5
:10178000010EF36E040EF3CFDBFF050EDB6A040ED1
:10179000DBCF10F0DB06050EDBCF11F001E2DB063C
:1017A0001050111006E0040EE66EAAEC12F0E5529D
:1017B000EED7106E060EE15C02E2E16AE552E16EE0
:1017C0001050E552E7CFD9FF1200D9CFE6FFE1CFA5
:1017D000D9FFE652DF6AA39A000E0D01E76EBF192A
:1017E000E8AE02D0BF3503D0E750D880BF5502E243
:1017F000010EDF6EA38ADF5000D0E552E552E7CF3D
:10180000D9FF1200D9CFE6FFE1CFD9FFE652DF6A58
:101810009D9A000E0D01E76E4119E8AE02D04135E8
:1018200003D0E750D880415502E2010EDF6E9D8A59
:10183000DF5000D0E552E552E7CFD9FF1200D9CFF3
:10184000E6FFE1CFD9FFE6520D014051402BEA6A95
:10185000420FE96E0D0EEA22EFCFDFFF3C0E0D01C5
:10186000405D02E30D01406B9D9A000E0D01E76E95
:101870004119E8AE02D0413503D0E750D880415538
:1018800002E20D0141079D8ADF5000D0E552E5528A
:10189000E7CFD9FF1200D9CFE6FFE1CFD9FFE6525B
:1018A0000D01BE51BE2BEA6AC00FE96E0D0EEA2291
:1018B000EFCFDFFF3C0E0D01BE5D02E30D01BE6BFD
:1018C000A39A000E0D01E76EBF19E8AE02D0BF3536
:1018D00003D0E750D880BF5502E20D01BF079D8AB3
:0E18E000DF5000D0E552E552E7CFD9FF1200ED
:0218EE00DACF4F
:1018F000E4FFE2CFDAFFE9CFE4FFEACFE4FFF6CF7F
:10190000E4FFF7CFE4FFF5CFE4FFF3CFE4FFF4CF3C
:10191000E4FFFACFE4FF00EE00F0100EE80403E36A
:10192000EECFE4FFFBD700EE10F0090EE80403E36E
:10193000EECFE4FFFBD7E652F2940F010C2B000E22
:101940000D230E230F230F01142B000E15230F015F
:10195000102B000E11230F01122B000E13230F0169
:101960001607000E175B0F01173504E21651000829
:10197000000E17550AE30F01182B000E19231A2326
:101980001B23C80E0F01166F176B0F0102510311B5
:1019900007E005D003CFFAFF0F010251F96EFADF1D
:1019A00000CFE6FF01CFE6FF72EC12F0E552E55200
:1019B000E55200EE18F0090EE80403E3E5CFEDFF71
:1019C000FBD700EE0FF0100EE80403E3E5CFEDFFC8
:1019D000FBD7E5CFFAFFE5CFF4FFE5CFF3FFE5CF87
:1019E000F5FFE5CFF7FFE5CFF6FFE5CFEAFFE5CF5F
:1019F000E9FFE5CFDAFF1100DACFE4FFE2CFDAFF4B
:101A0000E9CFE4FFEACFE4FFF6CFE4FFF7CFE4FF4E
:101A1000F5CFE4FFF3CFE4FFF4CFE4FFFACFE4FF28
:101A200000EE00F0100EE80403E3EECFE4FFFBD776
:101A300000EE10F0090EE80403E3EECFE4FFFBD75D
:101A4000E6529E9004CFE6FF05CFE6FF56EC12F07B
:101A5000E552E5520F010651071107E005D007CF07
:101A6000FAFF0F010651F96EFADFE55200EE18F0A9
:101A7000090EE80403E3E5CFEDFFFBD700EE0FF01E
:101A8000100EE80403E3E5CFEDFFFBD7E5CFFAFF47
:101A9000E5CFF4FFE5CFF3FFE5CFF5FFE5CFF7FFA7
:101AA000E5CFF6FFE5CFEAFFE5CFE9FFE5CFDAFFC7
:101AB0001100DACFE4FFE2CFDAFFE9CFE4FFEACFAB
:101AC000E4FFF6CFE4FFF7CFE4FFF5CFE4FFF3CF79
:101AD000E4FFF4CFE4FFFACFE4FF00EE00F0100ED5
:101AE000E80403E3EECFE4FFFBD700EE10F0090EAD
:101AF000E80403E3EECFE4FFFBD7E6529E9208CF63
:101B0000BBFF0F010A510B1107E005D00BCFFAFF05
:101B10000F010A51F96EFADFE55200EE18F0090ED6
:101B2000E80403E3E5CFEDFFFBD700EE0FF0100E66
:101B3000E80403E3E5CFEDFFFBD7E5CFFAFFE5CF00
:101B4000F4FFE5CFF3FFE5CFF5FFE5CFF7FFE5CFF6
:101B5000F6FFE5CFEAFFE5CFE9FFE5CFDAFF1100B9
:101B6000D9CFE6FFE1CFD9FF9F0EE66E8EEC12F0E3
:101B7000E552FD0EDBCF00FFFE0EDBCF01FFFB0EBB
:101B8000DBCF02FFFC0EDBCF03FFFD0EDBCFE6FF5A
:101B9000FE0EDBCFE6FF72EC12F0E552E552E552A5
:101BA000E7CFD9FF1200D9CFE6FFE1CFD9FF020E70
:101BB000E126830EDF6EDE52080EDD6E010EDBCFF6
:101BC000E6FFDFCFE6FFCAEC11F0E552E552FD0E6D
:101BD000DBCFE6FFFE0EDBCFE6FF56EC12F0E55260
:101BE000E5529F809D80010ECD6EFD0EDBCF04FF80
:101BF000FE0EDBCF05FFFB0EDBCF06FFFC0EDBCFBF
:101C000007FF020EE15C02E2E16AE552E16EE55295
:101C1000E7CFD9FF1200D9CFE6FFE1CFD9FF0F0EF2
:101C2000BA6E9F829D82FE0EDB50BB6EFE0EDB50B5
:101C30000F01086F096BFC0EDBCF0AFFFD0EDBCF37
:101C40000BFFE552E7CFD9FF1200D9CFE6FFE1CF76
:101C5000D9FF040EE126F29A18CFDFFF010E19CF4B
:101C6000DBFF020E1ACFDBFF030E1BCFDBFFF28A76
:101C7000DECF04F0DECF05F0DECF06F0DDCF07F0DB
:101C8000DD52DD5200D0040EE15C02E2E16AE55271
:101C9000E16EE552E7CFD9FF1200F29E0F01186BFB
:0A1CA000196B1A6B1B6BF28E120019
:061CAA001200D9CFE6FF95
:101CB000E1CFD9FF040EE126010EF36E020EF3CF41
:101CC000DBFF030EDB6A010EDB6A020EF36E010E10
:101CD000DBCFF4FFF350F45C01E389D0010EDB505D
:101CE000EA6A780FE96E010EEA22EF0401E07CD087
:101CF000DF6A0A0EDF5C41E2DF500A0DF3CF10F01D
:101D0000F4CF11F0000E1026010E112210C0E6FFD4
:101D100011C0E6FF010EDB500A0DF3CF12F0F4CF35
:101D200013F0640E1226010E132212C0E6FF13C038
:101D3000E6FFC5EC10F0E552E552E552E552000928
:101D40001AE10A0EE66EE66AE66ADF500A0DF3CF84
:101D500010F0F4CF11F0000E1026010E112210C069
:101D6000E6FF11C0E6FFABEC10F0126E050EE15E6F
:101D70001250020EDB6ADF2ABCD7020EDB042CE114
:101D80000A0E01017A5D02E301017A6B010EDB505C
:101D90000A0DF3CF10F0F4CF11F0640E1026010EEF
:101DA000112210C0E6FF11C0E6FF01017A510A0DB1
:101DB000F3CF12F0F4CF13F0000E1226010E13220F
:101DC00012C0E6FF13C0E6FFE5EC10F0E552E55265
:101DD000E552E55201017A2B010EDB50EA6A780FD9
:101DE000E96E010EEA22EF6A010EDB2A6ED7DF6A86
:101DF0000A0EDF5C10E2DF500A0DF3CFE9FFF4CFEB
:101E0000EAFF000EE926010EEA22EF5002E0030E7F
:101E1000DB2ADF2AEDD7030EDB50010A0BE0010AB3
:101E200001E00BD08090280EE66EE7EC12F0E55250
:101E3000809205D08080809202D0808200D0040EF3
:101E4000E15C02E2E16AE552E16EE552E7CFD9FFDB
:101E50001200D9CFE6FFE1CFD9FF020EE126010E35
:101E6000DB6AFD0EDBCFE6FFFE0EDBCFE6FF640E86
:101E7000E66E010EE66EE5EC10F0E552E552E55235
:101E8000E5520101010E786F010EDB5000D0106E9B
:101E9000020EE15C02E2E16AE552E16E1050E552A9
:101EA000E7CFD9FF1200D9CFE6FFE1CFD9FF020E6D
:101EB000E126010EDB6AFD0EDBCFE6FFFE0EDBCF77
:101EC000E6FF6E0EE66E010EE66EE5EC10F0E552F2
:101ED000E552E552E5520101010E796F010EDB502A
:101EE00000D0106E020EE15C02E2E16AE552E16EA2
:0A1EF0001050E552E7CFD9FF1200B1
:061EFA00D9CFE6FFE1CFA5
:101F0000D9FF080EE126DE6A240EDE6EF40EDE6EC8
:101F1000DD6ADD52DD52DECF05F0DECF06F0DECF2A
:101F200007F0DDCF08F0DD52DD52055007E1240E49
:101F3000061804E1F40E071801E108501FE00550EF
:101F400008E1480E061805E1E80E071802E1010E47
:101F5000081810E0055008E1900E061805E1D00EB3
:101F6000071802E1030E081801E000D0700ED36ECE
:101F70009B8C08D0600ED36E9B8C04D0700ED36EF9
:101F80009B9C00D0D9CFE9FFDACFEAFFEECF10F06B
:101F9000EECF11F0EECF12F0EFCF13F0020ED8908B
:101FA0001332123211321032E806F9E1040E10C079
:101FB000DBFF050E11C0DBFF060E12C0DBFF070EB4
:101FC00013C0DBFFD950040FE96EDACFEAFFE80E49
:101FD000096E030E0A6E0B6A0C6AEECF04F0EECFA8
:101FE00005F0EECF06F0EFCF07F0F4EC11F007C0EC
:101FF000EDFF06C0EDFF05C0EDFF04C0EFFF136865
:102000001468156A040EDBCF16F0050EDBCF17F04F
:10201000186A1650135C106E17501458116E185031
:102020001558126E10C028FF11C029FFC26A0F0197
:10203000386B0F01396B0F013A6B0F013B6B0F01CE
:102040003C6B96909490829094928292959C958EFF
:10205000949C948E9290929280908092F19E080E21
:10206000E15C02E2E16AE552E16EE552E7CFD9FFB9
:0220700012005C
:0E207200D9CFE6FFE1CFD9FF040EE1267DECC9
:102080000FF0000EE66EE66A28CFE6FF29CFE6FFE6
:10209000B0EC0DF0E552E552E552E552DD0EE66E8C
:1020A000CC0EE66EBB0EE66E410EE66E3FEC00F027
:1020B000E552E552E552E552520EE66E1E0EE66E10
:1020C000E66AC4EC00F0E552E552E552A60EE66E73
:1020D0001E0EE66E010EE66EC4EC00F0E552E5520F
:1020E000E55211EC00F0F40EDE6E010EDE6EDE6ADB
:1020F000DD6ADD52DD52D9CFE9FFDACFEAFFEE50DB
:102100000F010C5DEE500F010D59EE500F010E59ED
:10211000EE500F010F5907E3CDEC12F00F010C6BDD
:102120000D6B0E6B0F6B0F010A0E145D000E15592F
:1021300005E356EC0EF00F01146B156BC7EC01F0C4
:10214000DAD7040EE15C02E2E16AE552E16EE552A3
:06215000E7CFD9FF1200E9
:0A215600FE0EE3CFE9FFFF0EE3CF1A
:10216000EAFFE9CFF3FFEACFF4FFFB0EE35003E110
:10217000FC0EE35009E0FB0EE30602E2FC0EE30670
:10218000FD0EE350EE6EF1D71200D9CFE6FFDACFA5
:10219000E6FFFA0EE3CFD9FFFB0EE3CFDAFFFC0E2A
:1021A000E3CFE9FFFD0EE3CFEAFFDE50EF5C02E193
:1021B000EE66FBD7F36EFF0EE3CFDAFFE552FF0EBC
:1021C000E3CFD9FFE552F3501200D9CFE6FFDACFC3
:1021D000E6FFFA0EE3CFD9FFFB0EE3CFDAFFFC0EEA
:1021E000E3CFE9FFFD0EE3CFEAFFE9CFF3FFEACF4C
:1021F000F4FFDECFEFFFEE66FCD7FF0EE3CFDAFF92
:0C220000E552FF0EE3CFD9FFE5521200BB
:04220C00280EF66E34
:10221000000EF76E000EF86E0F010900F550216FE9
:102220000900F550226F03E1216701D03DD009007C
:10223000F5501C6F0900F5501D6F0900F5501E6F19
:1022400009000900F550E96E0900F550EA6E090031
:1022500009000900F5501F6F0900F550206F0900B3
:102260000900F6CF23FFF7CF24FFF8CF25FF1CCFBF
:10227000F6FF1DCFF7FF1ECFF8FF0F011F5302E13E
:10228000205307E00900F550EE6E1F07F8E2200723
:10229000F9D723CFF6FF24CFF7FF25CFF8FF0F01A3
:0A22A0002107000E225BBFD71200D9
:0622AA00D9CFE6FFDACFF8
:1022B000E6FFE1CFD9FFE2CFDAFF726A716AFD0E65
:1022C000DBB07288DBA202D0728C718CDBB4728EB0
:1022D000DBA602D0718801D0718ADBA802D072849B
:1022E00001D07294DBBA7186DBAC02D0A38A01D034
:1022F000A39ADBAE02D0A38801D0A398FB0EDB50DB
:10230000756EFC0EDBCF11F011C010F0116A105089
:10231000766E728A718EE552E5CFDAFFE7CFD9FF8C
:022320001200A9
:0E232200D9CFE6FFDACFE6FFE1CFD9FFE2CF59
:10233000DAFFAC6AAB6AFD0EDBB0AC88DBA202D080
:10234000AC8CAB8CDBB4AC8EDBA602D0AB8801D0FE
:10235000AB8ADBB8AC84DBBAAB86DBAC02D09D8A3F
:1023600001D09D9ADBAE02D09D8801D09D98FB0ED6
:10237000DB50AF6EFC0EDBCF11F011C010F0116A14
:102380001050B06EAC8AAB8EE552E5CFDAFFE7CFE6
:04239000D9FF12005F
:0C239400D9CFE6FFDACFE6FFE1CFD9FF9A
:1023A000E2CFDAFFFC0EDB50F30BCC6EFD0EDB5000
:1023B0007F0BE824CD6ECF6ACE6A9E90FD0EDBAE19
:1023C00002D09D8001D09D90A490FC0EDBA402D091
:1023D000A38001D0A390CCBECC86CD80E552E5CFC2
:0823E000DAFFE7CFD9FF12007C
:0823E800036A026A016A006A3F
:1023F000200EE76ED89004360536063607360036CE
:102400000136023603360950005C0A5001580B5061
:1024100002580C50035809E30950005E0A50015A53
:102420000B50025A0C50035A042AE72EE4D712002C
:10243000D9CFE6FFDACFE6FFE1CFD9FFE2CFDAFF6F
:10244000E652F20E0F012A1771AC03D02A9171B037
:102450002A8171B42A8571B22A877450DF6EDF50E9
:0E246000E552E552E5CFDAFFE7CFD9FF1200D3
:02246E00D9CFC4
:10247000E6FFDACFE6FFE1CFD9FFE2CFDAFFE6529F
:10248000F20E0F012B17ABAC03D02B91ABB02B810D
:10249000ABB42B85ABB22B87AE50DF6EDF50E5526D
:0C24A000E552E5CFDAFFE7CFD9FF1200CC
:0424AC00D9CFE6FF9F
:1024B000DACFE6FFE1CFD9FFE2CFDAFFE652E6520C
:1024C000FC0EDBCFDEFFDBCFDDFF010EDB50CF6E7E
:1024D000DF50CE6EE552E552E552E5CFDAFFE7CFA9
:0424E000D9FF12000E
:0C24E400D9CFE6FFDACFE6FFE1CFD9FF49
:1024F000E2CFDAFFE652E652FC0EDBCFDEFFDBCFA7
:10250000DDFF010EDB50D76EDF50D66EE552E5528F
:0C251000E552E5CFDAFFE7CFD9FF12005B
:04251C00D9CFE6FF2E
:10252000DACFE6FFE1CFD9FFE2CFDAFFFD0EDB50D5
:102530007F0BD56ED76AD66AF294FD0EDBAE02D061
:10254000F28A01D0F29AD58EE552E5CFDAFFE7CFD5
:04255000D9FF12009D
:0C255400FF0EE350196E480E01D04C0E33
:10256000E76EE72EFED7E76AE72EFED7192EF7D7DC
:042570000000120055
:0C257400380EF36E00EE00F00F0E01D8E0
:102580001200EA6002D0EE6AFCD7F350E960120054
:04259000EE6AFCD71C
:0C2594000F012D6B12000F012D0504E15A
:1025A0000F012D6B849004D00F01010E2D6F8480DC
:0225B000120017
:0E25B20010EE60F020EE60F0F86A0F9C06EC70
:0E25C00011F003EC00F039EC10F0FBD7120024
:0225CE00FF0EFE
:1025D000E350E84E1200000000D000D000D0E82EFA
:0425E000FAD7120014
:0525E400434F4D0A0009
:0725E90000000000000000EB
:1025F00000000000000000000000000000000000DB
:1026000000000000000000000000000000000000CA
:1026100000000000000000000000000000000000BA
:1026200000000000000000000000000000000000AA
:10263000000000000000000000000000000000009A
:10264000000000000000000000000000000000008A
:10265000000000000000000000000000000000007A
:10266000000000000000000000000000000000006A
:10267000000000000000000000000000000000005A
:10268000000000000000000000000000000000004A
:10269000000000000000000000000000000000003A
:1026A000000000000000000000000000000000002A
:1026B000000000000000000000000000000000001A
:1026C000000000000000000000000000000000000A
:1026D00000000000000000000000000000000000FA
:0526E0000000000000F5
:0B26E5000000000000000000000000EA
:1026F00000000000000000000000000000000000DA
:1027000000000000000000000000000000000000C9
:1027100000000000000000000000000000000000B9
:1027200000000000000000000000000000000000A9
:102730000000000000000000000000000000000099
:102740000000000000000000000000000000000089
:102750000000000000000000000000000000000079
:102760000000000000000000000000000000000069
:012770000068
:0F27710000000000000000000000000000000059
:102780000000000000000000000000000000000049
:102790000000000000000000000000000000000039
:1027A0000000000000000000000000000000000029
:1027B0000000000000000000000000000000000019
:1027C0000000000000000000000000000000000009
:1027D00000000000000000000000000000000000F9
:0C27E000000000000000000000000000ED
:0427EC0000000000E9
:1027F00000000000000000000000000000000000D9
:082800000000C8000000000008
:0128080000CF
:02280900FFFFCF
:02280B000000CB
:020000040030CA
:0100010008F6
:0100020001FC
:0100030024D8
:01000500BD3D
:010006008079
:010008000FE8
:01000900C036
:01000A000FE6
:01000B00E014
:01000C000FE4
:01000D0040B2
:00000001FF
